{
  "contractName": "AlienKongz",
  "abi": [
    {
      "inputs": [
        {
          "internalType": "string",
          "name": "_name",
          "type": "string"
        },
        {
          "internalType": "string",
          "name": "_symbol",
          "type": "string"
        },
        {
          "internalType": "string",
          "name": "_initBaseURI",
          "type": "string"
        }
      ],
      "stateMutability": "nonpayable",
      "type": "constructor"
    },
    {
      "anonymous": false,
      "inputs": [
        {
          "indexed": true,
          "internalType": "address",
          "name": "owner",
          "type": "address"
        },
        {
          "indexed": true,
          "internalType": "address",
          "name": "approved",
          "type": "address"
        },
        {
          "indexed": true,
          "internalType": "uint256",
          "name": "tokenId",
          "type": "uint256"
        }
      ],
      "name": "Approval",
      "type": "event"
    },
    {
      "anonymous": false,
      "inputs": [
        {
          "indexed": true,
          "internalType": "address",
          "name": "owner",
          "type": "address"
        },
        {
          "indexed": true,
          "internalType": "address",
          "name": "operator",
          "type": "address"
        },
        {
          "indexed": false,
          "internalType": "bool",
          "name": "approved",
          "type": "bool"
        }
      ],
      "name": "ApprovalForAll",
      "type": "event"
    },
    {
      "anonymous": false,
      "inputs": [
        {
          "indexed": true,
          "internalType": "address",
          "name": "previousOwner",
          "type": "address"
        },
        {
          "indexed": true,
          "internalType": "address",
          "name": "newOwner",
          "type": "address"
        }
      ],
      "name": "OwnershipTransferred",
      "type": "event"
    },
    {
      "anonymous": false,
      "inputs": [
        {
          "indexed": true,
          "internalType": "address",
          "name": "from",
          "type": "address"
        },
        {
          "indexed": true,
          "internalType": "address",
          "name": "to",
          "type": "address"
        },
        {
          "indexed": true,
          "internalType": "uint256",
          "name": "tokenId",
          "type": "uint256"
        }
      ],
      "name": "Transfer",
      "type": "event"
    },
    {
      "inputs": [
        {
          "internalType": "address",
          "name": "to",
          "type": "address"
        },
        {
          "internalType": "uint256",
          "name": "tokenId",
          "type": "uint256"
        }
      ],
      "name": "approve",
      "outputs": [],
      "stateMutability": "nonpayable",
      "type": "function"
    },
    {
      "inputs": [
        {
          "internalType": "address",
          "name": "owner",
          "type": "address"
        }
      ],
      "name": "balanceOf",
      "outputs": [
        {
          "internalType": "uint256",
          "name": "",
          "type": "uint256"
        }
      ],
      "stateMutability": "view",
      "type": "function",
      "constant": true
    },
    {
      "inputs": [],
      "name": "baseExtension",
      "outputs": [
        {
          "internalType": "string",
          "name": "",
          "type": "string"
        }
      ],
      "stateMutability": "view",
      "type": "function",
      "constant": true
    },
    {
      "inputs": [],
      "name": "baseURI",
      "outputs": [
        {
          "internalType": "string",
          "name": "",
          "type": "string"
        }
      ],
      "stateMutability": "view",
      "type": "function",
      "constant": true
    },
    {
      "inputs": [],
      "name": "cost",
      "outputs": [
        {
          "internalType": "uint256",
          "name": "",
          "type": "uint256"
        }
      ],
      "stateMutability": "view",
      "type": "function",
      "constant": true
    },
    {
      "inputs": [
        {
          "internalType": "uint256",
          "name": "tokenId",
          "type": "uint256"
        }
      ],
      "name": "getApproved",
      "outputs": [
        {
          "internalType": "address",
          "name": "",
          "type": "address"
        }
      ],
      "stateMutability": "view",
      "type": "function",
      "constant": true
    },
    {
      "inputs": [
        {
          "internalType": "address",
          "name": "owner",
          "type": "address"
        },
        {
          "internalType": "address",
          "name": "operator",
          "type": "address"
        }
      ],
      "name": "isApprovedForAll",
      "outputs": [
        {
          "internalType": "bool",
          "name": "",
          "type": "bool"
        }
      ],
      "stateMutability": "view",
      "type": "function",
      "constant": true
    },
    {
      "inputs": [],
      "name": "maxMintAmount",
      "outputs": [
        {
          "internalType": "uint256",
          "name": "",
          "type": "uint256"
        }
      ],
      "stateMutability": "view",
      "type": "function",
      "constant": true
    },
    {
      "inputs": [],
      "name": "maxSupply",
      "outputs": [
        {
          "internalType": "uint256",
          "name": "",
          "type": "uint256"
        }
      ],
      "stateMutability": "view",
      "type": "function",
      "constant": true
    },
    {
      "inputs": [],
      "name": "maxWLMintAmount",
      "outputs": [
        {
          "internalType": "uint256",
          "name": "",
          "type": "uint256"
        }
      ],
      "stateMutability": "view",
      "type": "function",
      "constant": true
    },
    {
      "inputs": [],
      "name": "name",
      "outputs": [
        {
          "internalType": "string",
          "name": "",
          "type": "string"
        }
      ],
      "stateMutability": "view",
      "type": "function",
      "constant": true
    },
    {
      "inputs": [],
      "name": "owner",
      "outputs": [
        {
          "internalType": "address",
          "name": "",
          "type": "address"
        }
      ],
      "stateMutability": "view",
      "type": "function",
      "constant": true
    },
    {
      "inputs": [
        {
          "internalType": "uint256",
          "name": "tokenId",
          "type": "uint256"
        }
      ],
      "name": "ownerOf",
      "outputs": [
        {
          "internalType": "address",
          "name": "",
          "type": "address"
        }
      ],
      "stateMutability": "view",
      "type": "function",
      "constant": true
    },
    {
      "inputs": [],
      "name": "paused",
      "outputs": [
        {
          "internalType": "bool",
          "name": "",
          "type": "bool"
        }
      ],
      "stateMutability": "view",
      "type": "function",
      "constant": true
    },
    {
      "inputs": [],
      "name": "renounceOwnership",
      "outputs": [],
      "stateMutability": "nonpayable",
      "type": "function"
    },
    {
      "inputs": [
        {
          "internalType": "address",
          "name": "from",
          "type": "address"
        },
        {
          "internalType": "address",
          "name": "to",
          "type": "address"
        },
        {
          "internalType": "uint256",
          "name": "tokenId",
          "type": "uint256"
        }
      ],
      "name": "safeTransferFrom",
      "outputs": [],
      "stateMutability": "nonpayable",
      "type": "function"
    },
    {
      "inputs": [
        {
          "internalType": "address",
          "name": "from",
          "type": "address"
        },
        {
          "internalType": "address",
          "name": "to",
          "type": "address"
        },
        {
          "internalType": "uint256",
          "name": "tokenId",
          "type": "uint256"
        },
        {
          "internalType": "bytes",
          "name": "_data",
          "type": "bytes"
        }
      ],
      "name": "safeTransferFrom",
      "outputs": [],
      "stateMutability": "nonpayable",
      "type": "function"
    },
    {
      "inputs": [
        {
          "internalType": "address",
          "name": "operator",
          "type": "address"
        },
        {
          "internalType": "bool",
          "name": "approved",
          "type": "bool"
        }
      ],
      "name": "setApprovalForAll",
      "outputs": [],
      "stateMutability": "nonpayable",
      "type": "function"
    },
    {
      "inputs": [
        {
          "internalType": "bytes4",
          "name": "interfaceId",
          "type": "bytes4"
        }
      ],
      "name": "supportsInterface",
      "outputs": [
        {
          "internalType": "bool",
          "name": "",
          "type": "bool"
        }
      ],
      "stateMutability": "view",
      "type": "function",
      "constant": true
    },
    {
      "inputs": [],
      "name": "symbol",
      "outputs": [
        {
          "internalType": "string",
          "name": "",
          "type": "string"
        }
      ],
      "stateMutability": "view",
      "type": "function",
      "constant": true
    },
    {
      "inputs": [
        {
          "internalType": "uint256",
          "name": "index",
          "type": "uint256"
        }
      ],
      "name": "tokenByIndex",
      "outputs": [
        {
          "internalType": "uint256",
          "name": "",
          "type": "uint256"
        }
      ],
      "stateMutability": "view",
      "type": "function",
      "constant": true
    },
    {
      "inputs": [
        {
          "internalType": "address",
          "name": "owner",
          "type": "address"
        },
        {
          "internalType": "uint256",
          "name": "index",
          "type": "uint256"
        }
      ],
      "name": "tokenOfOwnerByIndex",
      "outputs": [
        {
          "internalType": "uint256",
          "name": "",
          "type": "uint256"
        }
      ],
      "stateMutability": "view",
      "type": "function",
      "constant": true
    },
    {
      "inputs": [],
      "name": "totalSupply",
      "outputs": [
        {
          "internalType": "uint256",
          "name": "",
          "type": "uint256"
        }
      ],
      "stateMutability": "view",
      "type": "function",
      "constant": true
    },
    {
      "inputs": [
        {
          "internalType": "address",
          "name": "from",
          "type": "address"
        },
        {
          "internalType": "address",
          "name": "to",
          "type": "address"
        },
        {
          "internalType": "uint256",
          "name": "tokenId",
          "type": "uint256"
        }
      ],
      "name": "transferFrom",
      "outputs": [],
      "stateMutability": "nonpayable",
      "type": "function"
    },
    {
      "inputs": [
        {
          "internalType": "address",
          "name": "newOwner",
          "type": "address"
        }
      ],
      "name": "transferOwnership",
      "outputs": [],
      "stateMutability": "nonpayable",
      "type": "function"
    },
    {
      "inputs": [
        {
          "internalType": "address",
          "name": "",
          "type": "address"
        }
      ],
      "name": "whitelisted",
      "outputs": [
        {
          "internalType": "bool",
          "name": "",
          "type": "bool"
        }
      ],
      "stateMutability": "view",
      "type": "function",
      "constant": true
    },
    {
      "inputs": [
        {
          "internalType": "address",
          "name": "_to",
          "type": "address"
        }
      ],
      "name": "mint",
      "outputs": [],
      "stateMutability": "payable",
      "type": "function",
      "payable": true
    },
    {
      "inputs": [
        {
          "internalType": "address",
          "name": "_to",
          "type": "address"
        },
        {
          "internalType": "uint256",
          "name": "_mintAmount",
          "type": "uint256"
        }
      ],
      "name": "mintMany",
      "outputs": [],
      "stateMutability": "payable",
      "type": "function",
      "payable": true
    },
    {
      "inputs": [
        {
          "internalType": "address",
          "name": "_owner",
          "type": "address"
        }
      ],
      "name": "walletOfOwner",
      "outputs": [
        {
          "internalType": "uint256[]",
          "name": "",
          "type": "uint256[]"
        }
      ],
      "stateMutability": "view",
      "type": "function",
      "constant": true
    },
    {
      "inputs": [
        {
          "internalType": "uint256",
          "name": "tokenId",
          "type": "uint256"
        }
      ],
      "name": "tokenURI",
      "outputs": [
        {
          "internalType": "string",
          "name": "",
          "type": "string"
        }
      ],
      "stateMutability": "view",
      "type": "function",
      "constant": true
    },
    {
      "inputs": [
        {
          "internalType": "uint256",
          "name": "_newCost",
          "type": "uint256"
        }
      ],
      "name": "setCost",
      "outputs": [],
      "stateMutability": "nonpayable",
      "type": "function"
    },
    {
      "inputs": [
        {
          "internalType": "string",
          "name": "_newBaseURI",
          "type": "string"
        }
      ],
      "name": "setBaseURI",
      "outputs": [],
      "stateMutability": "nonpayable",
      "type": "function"
    },
    {
      "inputs": [
        {
          "internalType": "string",
          "name": "_newBaseExtension",
          "type": "string"
        }
      ],
      "name": "setBaseExtension",
      "outputs": [],
      "stateMutability": "nonpayable",
      "type": "function"
    },
    {
      "inputs": [
        {
          "internalType": "bool",
          "name": "_state",
          "type": "bool"
        }
      ],
      "name": "pause",
      "outputs": [],
      "stateMutability": "nonpayable",
      "type": "function"
    },
    {
      "inputs": [
        {
          "internalType": "uint256",
          "name": "_newMaxSupply",
          "type": "uint256"
        }
      ],
      "name": "increaseMaxSupply",
      "outputs": [],
      "stateMutability": "nonpayable",
      "type": "function"
    },
    {
      "inputs": [
        {
          "internalType": "uint256",
          "name": "_newMaxMintAmount",
          "type": "uint256"
        }
      ],
      "name": "setMaxMintAmount",
      "outputs": [],
      "stateMutability": "nonpayable",
      "type": "function"
    },
    {
      "inputs": [
        {
          "internalType": "uint256",
          "name": "_newMaxWLMintAmount",
          "type": "uint256"
        }
      ],
      "name": "setMaxWLMintAmount",
      "outputs": [],
      "stateMutability": "nonpayable",
      "type": "function"
    },
    {
      "inputs": [
        {
          "internalType": "address",
          "name": "_user",
          "type": "address"
        }
      ],
      "name": "whitelistUser",
      "outputs": [],
      "stateMutability": "nonpayable",
      "type": "function"
    },
    {
      "inputs": [
        {
          "internalType": "address",
          "name": "_user",
          "type": "address"
        }
      ],
      "name": "removeWhiteListedUser",
      "outputs": [],
      "stateMutability": "nonpayable",
      "type": "function"
    },
    {
      "inputs": [],
      "name": "withdraw",
      "outputs": [],
      "stateMutability": "payable",
      "type": "function",
      "payable": true
    }
  ],
  "bytecode": "0x60c06040526005608081905264173539b7b760d91b60a09081526200002891600c9190620001ac565b50666a94d74f430000600d556103e8600e55600f805460ff19169055600a60105560026011553480156200005b57600080fd5b50604051620033b3380380620033b38339810160408190526200007e916200031f565b82518390839062000097906000906020850190620001ac565b508051620000ad906001906020840190620001ac565b505050620000ca620000c4620000de60201b60201c565b620000e2565b620000d58162000134565b505050620003ed565b3390565b600a80546001600160a01b038381166001600160a01b0319831681179093556040519116919082907f8be0079c531659141344cd1fd0a4f28419497f9722a3daafe3b4186f6b6457e090600090a35050565b600a546001600160a01b03163314620001935760405162461bcd60e51b815260206004820181905260248201527f4f776e61626c653a2063616c6c6572206973206e6f7420746865206f776e6572604482015260640160405180910390fd5b8051620001a890600b906020840190620001ac565b5050565b828054620001ba90620003b0565b90600052602060002090601f016020900481019282620001de576000855562000229565b82601f10620001f957805160ff191683800117855562000229565b8280016001018555821562000229579182015b82811115620002295782518255916020019190600101906200020c565b50620002379291506200023b565b5090565b5b808211156200023757600081556001016200023c565b634e487b7160e01b600052604160045260246000fd5b600082601f8301126200027a57600080fd5b81516001600160401b038082111562000297576200029762000252565b604051601f8301601f19908116603f01168101908282118183101715620002c257620002c262000252565b81604052838152602092508683858801011115620002df57600080fd5b600091505b83821015620003035785820183015181830184015290820190620002e4565b83821115620003155760008385830101525b9695505050505050565b6000806000606084860312156200033557600080fd5b83516001600160401b03808211156200034d57600080fd5b6200035b8783880162000268565b945060208601519150808211156200037257600080fd5b620003808783880162000268565b935060408601519150808211156200039757600080fd5b50620003a68682870162000268565b9150509250925092565b600181811c90821680620003c557607f821691505b60208210811415620003e757634e487b7160e01b600052602260045260246000fd5b50919050565b612fb680620003fd6000396000f3fe6080604052600436106102bb5760003560e01c80635e8306561161016e578063a22cb465116100cb578063d936547e1161007f578063dbbc5c1711610064578063dbbc5c171461072d578063e985e9c514610743578063f2fde38b1461078c57600080fd5b8063d936547e146106dd578063da3ef23f1461070d57600080fd5b8063c6682862116100b0578063c668286214610692578063c87b56dd146106a7578063d5abeb01146106c757600080fd5b8063a22cb46514610652578063b88d4fde1461067257600080fd5b806370a08231116101225780638da5cb5b116101075780638da5cb5b146105ff57806390edbfee1461061d57806395d89b411461063d57600080fd5b806370a08231146105ca578063715018a6146105ea57600080fd5b8063649937891161015357806364993789146105825780636a627842146105a25780636c0360eb146105b557600080fd5b80635e8306561461054f5780636352211e1461056257600080fd5b806323b872dd1161021c57806344a0d68a116101d05780634f6ccce7116101b55780634f6ccce7146104f557806355f804b3146105155780635c975abb1461053557600080fd5b806344a0d68a146104b55780634a4c560d146104d557600080fd5b80633ccfd60b116102015780633ccfd60b1461046057806342842e0e14610468578063438b63001461048857600080fd5b806323b872dd146104205780632f745c591461044057600080fd5b8063088a4ed01161027357806313faede61161025857806313faede6146103d157806318160ddd146103f5578063239c70ae1461040a57600080fd5b8063088a4ed014610391578063095ea7b3146103b157600080fd5b806303e21a1f116102a457806303e21a1f1461031757806306fdde0314610337578063081812fc1461035957600080fd5b806301ffc9a7146102c057806302329a29146102f5575b600080fd5b3480156102cc57600080fd5b506102e06102db3660046128bd565b6107ac565b60405190151581526020015b60405180910390f35b34801561030157600080fd5b506103156103103660046128ef565b610808565b005b34801561032357600080fd5b5061031561033236600461290a565b61087a565b34801561034357600080fd5b5061034c6108d9565b6040516102ec9190612999565b34801561036557600080fd5b5061037961037436600461290a565b61096b565b6040516001600160a01b0390911681526020016102ec565b34801561039d57600080fd5b506103156103ac36600461290a565b610a11565b3480156103bd57600080fd5b506103156103cc3660046129c3565b610a70565b3480156103dd57600080fd5b506103e7600d5481565b6040519081526020016102ec565b34801561040157600080fd5b506008546103e7565b34801561041657600080fd5b506103e760105481565b34801561042c57600080fd5b5061031561043b3660046129ed565b610ba2565b34801561044c57600080fd5b506103e761045b3660046129c3565b610c29565b610315610cd1565b34801561047457600080fd5b506103156104833660046129ed565b610d9f565b34801561049457600080fd5b506104a86104a3366004612a29565b610dba565b6040516102ec9190612a44565b3480156104c157600080fd5b506103156104d036600461290a565b610e5c565b3480156104e157600080fd5b506103156104f0366004612a29565b610ebb565b34801561050157600080fd5b506103e761051036600461290a565b610f39565b34801561052157600080fd5b50610315610530366004612b4b565b610fdd565b34801561054157600080fd5b50600f546102e09060ff1681565b61031561055d3660046129c3565b61104e565b34801561056e57600080fd5b5061037961057d36600461290a565b611343565b34801561058e57600080fd5b5061031561059d366004612a29565b6113ce565b6103156105b0366004612a29565b611449565b3480156105c157600080fd5b5061034c6114cc565b3480156105d657600080fd5b506103e76105e5366004612a29565b61155a565b3480156105f657600080fd5b506103156115f4565b34801561060b57600080fd5b50600a546001600160a01b0316610379565b34801561062957600080fd5b5061031561063836600461290a565b61165a565b34801561064957600080fd5b5061034c611730565b34801561065e57600080fd5b5061031561066d366004612b94565b61173f565b34801561067e57600080fd5b5061031561068d366004612bc7565b611804565b34801561069e57600080fd5b5061034c61188c565b3480156106b357600080fd5b5061034c6106c236600461290a565b611899565b3480156106d357600080fd5b506103e7600e5481565b3480156106e957600080fd5b506102e06106f8366004612a29565b60126020526000908152604090205460ff1681565b34801561071957600080fd5b50610315610728366004612b4b565b611a08565b34801561073957600080fd5b506103e760115481565b34801561074f57600080fd5b506102e061075e366004612c43565b6001600160a01b03918216600090815260056020908152604080832093909416825291909152205460ff1690565b34801561079857600080fd5b506103156107a7366004612a29565b611a75565b60007fffffffff0000000000000000000000000000000000000000000000000000000082167f780e9d63000000000000000000000000000000000000000000000000000000001480610802575061080282611b54565b92915050565b600a546001600160a01b031633146108675760405162461bcd60e51b815260206004820181905260248201527f4f776e61626c653a2063616c6c6572206973206e6f7420746865206f776e657260448201526064015b60405180910390fd5b600f805460ff1916911515919091179055565b600a546001600160a01b031633146108d45760405162461bcd60e51b815260206004820181905260248201527f4f776e61626c653a2063616c6c6572206973206e6f7420746865206f776e6572604482015260640161085e565b601155565b6060600080546108e890612c6d565b80601f016020809104026020016040519081016040528092919081815260200182805461091490612c6d565b80156109615780601f1061093657610100808354040283529160200191610961565b820191906000526020600020905b81548152906001019060200180831161094457829003601f168201915b5050505050905090565b6000818152600260205260408120546001600160a01b03166109f55760405162461bcd60e51b815260206004820152602c60248201527f4552433732313a20617070726f76656420717565727920666f72206e6f6e657860448201527f697374656e7420746f6b656e0000000000000000000000000000000000000000606482015260840161085e565b506000908152600460205260409020546001600160a01b031690565b600a546001600160a01b03163314610a6b5760405162461bcd60e51b815260206004820181905260248201527f4f776e61626c653a2063616c6c6572206973206e6f7420746865206f776e6572604482015260640161085e565b601055565b6000610a7b82611343565b9050806001600160a01b0316836001600160a01b03161415610b055760405162461bcd60e51b815260206004820152602160248201527f4552433732313a20617070726f76616c20746f2063757272656e74206f776e6560448201527f7200000000000000000000000000000000000000000000000000000000000000606482015260840161085e565b336001600160a01b0382161480610b215750610b21813361075e565b610b935760405162461bcd60e51b815260206004820152603860248201527f4552433732313a20617070726f76652063616c6c6572206973206e6f74206f7760448201527f6e6572206e6f7220617070726f76656420666f7220616c6c0000000000000000606482015260840161085e565b610b9d8383611c37565b505050565b610bac3382611cbd565b610c1e5760405162461bcd60e51b815260206004820152603160248201527f4552433732313a207472616e736665722063616c6c6572206973206e6f74206f60448201527f776e6572206e6f7220617070726f766564000000000000000000000000000000606482015260840161085e565b610b9d838383611dc5565b6000610c348361155a565b8210610ca85760405162461bcd60e51b815260206004820152602b60248201527f455243373231456e756d657261626c653a206f776e657220696e646578206f7560448201527f74206f6620626f756e6473000000000000000000000000000000000000000000606482015260840161085e565b506001600160a01b03919091166000908152600660209081526040808320938352929052205490565b600a546001600160a01b03163314610d2b5760405162461bcd60e51b815260206004820181905260248201527f4f776e61626c653a2063616c6c6572206973206e6f7420746865206f776e6572604482015260640161085e565b6000610d3f600a546001600160a01b031690565b6001600160a01b03164760405160006040518083038185875af1925050503d8060008114610d89576040519150601f19603f3d011682016040523d82523d6000602084013e610d8e565b606091505b5050905080610d9c57600080fd5b50565b610b9d83838360405180602001604052806000815250611804565b60606000610dc78361155a565b905060008167ffffffffffffffff811115610de457610de4612a88565b604051908082528060200260200182016040528015610e0d578160200160208202803683370190505b50905060005b82811015610e5457610e258582610c29565b828281518110610e3757610e37612cc1565b602090810291909101015280610e4c81612d1f565b915050610e13565b509392505050565b600a546001600160a01b03163314610eb65760405162461bcd60e51b815260206004820181905260248201527f4f776e61626c653a2063616c6c6572206973206e6f7420746865206f776e6572604482015260640161085e565b600d55565b600a546001600160a01b03163314610f155760405162461bcd60e51b815260206004820181905260248201527f4f776e61626c653a2063616c6c6572206973206e6f7420746865206f776e6572604482015260640161085e565b6001600160a01b03166000908152601260205260409020805460ff19166001179055565b6000610f4460085490565b8210610fb85760405162461bcd60e51b815260206004820152602c60248201527f455243373231456e756d657261626c653a20676c6f62616c20696e646578206f60448201527f7574206f6620626f756e64730000000000000000000000000000000000000000606482015260840161085e565b60088281548110610fcb57610fcb612cc1565b90600052602060002001549050919050565b600a546001600160a01b031633146110375760405162461bcd60e51b815260206004820181905260248201527f4f776e61626c653a2063616c6c6572206973206e6f7420746865206f776e6572604482015260640161085e565b805161104a90600b9060208401906127f6565b5050565b600061105960085490565b600f5490915060ff16156110d55760405162461bcd60e51b815260206004820152602f60248201527f436f6e7472616374206973207061757365642c20636f6e74616374206f776e6560448201527f7220746f20756e70617573652069740000000000000000000000000000000000606482015260840161085e565b600e546110e28383612d58565b11156111555760405162461bcd60e51b8152602060048201526024808201527f4d696e74656420616d6f756e7420776f756c6420657863656564206d6178537560448201527f70706c7900000000000000000000000000000000000000000000000000000000606482015260840161085e565b6010548211156111cd5760405162461bcd60e51b815260206004820152602860248201527f43616e206e6f74206d696e74206d6f7265207468616e20746865206d61784d6960448201527f6e74416d6f756e74000000000000000000000000000000000000000000000000606482015260840161085e565b3360009081526012602052604090205460ff161561125d5760115482111561125d5760405162461bcd60e51b815260206004820152603f60248201527f5768697465204c697374656420616464726573732063616e206e6f74206d696e60448201527f74206d6f7265207468616e20746865206d6178574c4d696e74416d6f756e7400606482015260840161085e565b600a546001600160a01b0316331461130e573360009081526012602052604090205460ff16151560011461130e5781600d546112999190612d70565b34101561130e5760405162461bcd60e51b815260206004820152602660248201527f496e73756666696369656e742066756e64732073656e7420746f207472616e7360448201527f616374696f6e0000000000000000000000000000000000000000000000000000606482015260840161085e565b60015b82811161133d5761132b846113268385612d58565b611fb5565b8061133581612d1f565b915050611311565b50505050565b6000818152600260205260408120546001600160a01b0316806108025760405162461bcd60e51b815260206004820152602960248201527f4552433732313a206f776e657220717565727920666f72206e6f6e657869737460448201527f656e7420746f6b656e0000000000000000000000000000000000000000000000606482015260840161085e565b600a546001600160a01b031633146114285760405162461bcd60e51b815260206004820181905260248201527f4f776e61626c653a2063616c6c6572206973206e6f7420746865206f776e6572604482015260640161085e565b6001600160a01b03166000908152601260205260409020805460ff19169055565b600061145460085490565b600f5490915060ff161561146757600080fd5b600e54611475826001612d58565b111561148057600080fd5b600a546001600160a01b031633146114bd573360009081526012602052604090205460ff1615156001146114bd57600d543410156114bd57600080fd5b61104a82611326836001612d58565b600b80546114d990612c6d565b80601f016020809104026020016040519081016040528092919081815260200182805461150590612c6d565b80156115525780601f1061152757610100808354040283529160200191611552565b820191906000526020600020905b81548152906001019060200180831161153557829003601f168201915b505050505081565b60006001600160a01b0382166115d85760405162461bcd60e51b815260206004820152602a60248201527f4552433732313a2062616c616e636520717565727920666f7220746865207a6560448201527f726f206164647265737300000000000000000000000000000000000000000000606482015260840161085e565b506001600160a01b031660009081526003602052604090205490565b600a546001600160a01b0316331461164e5760405162461bcd60e51b815260206004820181905260248201527f4f776e61626c653a2063616c6c6572206973206e6f7420746865206f776e6572604482015260640161085e565b6116586000611fcf565b565b600a546001600160a01b031633146116b45760405162461bcd60e51b815260206004820181905260248201527f4f776e61626c653a2063616c6c6572206973206e6f7420746865206f776e6572604482015260640161085e565b600e54811161172b5760405162461bcd60e51b815260206004820152603a60248201527f43616e206e6f74207365742061206e6577206d6178537570706c79206c6f776560448201527f72207468616e207468652070726576696f757320737570706c79000000000000606482015260840161085e565b600e55565b6060600180546108e890612c6d565b6001600160a01b0382163314156117985760405162461bcd60e51b815260206004820152601960248201527f4552433732313a20617070726f766520746f2063616c6c657200000000000000604482015260640161085e565b3360008181526005602090815260408083206001600160a01b03871680855290835292819020805460ff191686151590811790915590519081529192917f17307eab39ab6107e8899845ad3d59bd9653f200f220920489ca2b5937696c31910160405180910390a35050565b61180e3383611cbd565b6118805760405162461bcd60e51b815260206004820152603160248201527f4552433732313a207472616e736665722063616c6c6572206973206e6f74206f60448201527f776e6572206e6f7220617070726f766564000000000000000000000000000000606482015260840161085e565b61133d84848484612039565b600c80546114d990612c6d565b6000818152600260205260409020546060906001600160a01b03166119265760405162461bcd60e51b815260206004820152602f60248201527f4552433732314d657461646174613a2055524920717565727920666f72206e6f60448201527f6e6578697374656e7420746f6b656e0000000000000000000000000000000000606482015260840161085e565b6000600b805461193590612c6d565b80601f016020809104026020016040519081016040528092919081815260200182805461196190612c6d565b80156119ae5780601f10611983576101008083540402835291602001916119ae565b820191906000526020600020905b81548152906001019060200180831161199157829003601f168201915b5050505050905060008151116119d35760405180602001604052806000815250611a01565b806119dd846120c2565b600c6040516020016119f193929190612dad565b6040516020818303038152906040525b9392505050565b600a546001600160a01b03163314611a625760405162461bcd60e51b815260206004820181905260248201527f4f776e61626c653a2063616c6c6572206973206e6f7420746865206f776e6572604482015260640161085e565b805161104a90600c9060208401906127f6565b600a546001600160a01b03163314611acf5760405162461bcd60e51b815260206004820181905260248201527f4f776e61626c653a2063616c6c6572206973206e6f7420746865206f776e6572604482015260640161085e565b6001600160a01b038116611b4b5760405162461bcd60e51b815260206004820152602660248201527f4f776e61626c653a206e6577206f776e657220697320746865207a65726f206160448201527f6464726573730000000000000000000000000000000000000000000000000000606482015260840161085e565b610d9c81611fcf565b60007fffffffff0000000000000000000000000000000000000000000000000000000082167f80ac58cd000000000000000000000000000000000000000000000000000000001480611be757507fffffffff0000000000000000000000000000000000000000000000000000000082167f5b5e139f00000000000000000000000000000000000000000000000000000000145b8061080257507f01ffc9a7000000000000000000000000000000000000000000000000000000007fffffffff00000000000000000000000000000000000000000000000000000000831614610802565b600081815260046020526040902080547fffffffffffffffffffffffff0000000000000000000000000000000000000000166001600160a01b0384169081179091558190611c8482611343565b6001600160a01b03167f8c5be1e5ebec7d5bd14f71427d1e84f3dd0314c0f7b2291e5b200ac8c7c3b92560405160405180910390a45050565b6000818152600260205260408120546001600160a01b0316611d475760405162461bcd60e51b815260206004820152602c60248201527f4552433732313a206f70657261746f7220717565727920666f72206e6f6e657860448201527f697374656e7420746f6b656e0000000000000000000000000000000000000000606482015260840161085e565b6000611d5283611343565b9050806001600160a01b0316846001600160a01b03161480611d8d5750836001600160a01b0316611d828461096b565b6001600160a01b0316145b80611dbd57506001600160a01b0380821660009081526005602090815260408083209388168352929052205460ff165b949350505050565b826001600160a01b0316611dd882611343565b6001600160a01b031614611e545760405162461bcd60e51b815260206004820152602960248201527f4552433732313a207472616e73666572206f6620746f6b656e2074686174206960448201527f73206e6f74206f776e0000000000000000000000000000000000000000000000606482015260840161085e565b6001600160a01b038216611ecf5760405162461bcd60e51b8152602060048201526024808201527f4552433732313a207472616e7366657220746f20746865207a65726f2061646460448201527f7265737300000000000000000000000000000000000000000000000000000000606482015260840161085e565b611eda8383836121f4565b611ee5600082611c37565b6001600160a01b0383166000908152600360205260408120805460019290611f0e908490612e8a565b90915550506001600160a01b0382166000908152600360205260408120805460019290611f3c908490612d58565b909155505060008181526002602052604080822080547fffffffffffffffffffffffff0000000000000000000000000000000000000000166001600160a01b0386811691821790925591518493918716917fddf252ad1be2c89b69c2b068fc378daa952ba7f163c4a11628f55a4df523b3ef91a4505050565b61104a8282604051806020016040528060008152506122ac565b600a80546001600160a01b038381167fffffffffffffffffffffffff0000000000000000000000000000000000000000831681179093556040519116919082907f8be0079c531659141344cd1fd0a4f28419497f9722a3daafe3b4186f6b6457e090600090a35050565b612044848484611dc5565b61205084848484612335565b61133d5760405162461bcd60e51b815260206004820152603260248201527f4552433732313a207472616e7366657220746f206e6f6e20455243373231526560448201527f63656976657220696d706c656d656e7465720000000000000000000000000000606482015260840161085e565b60608161210257505060408051808201909152600181527f3000000000000000000000000000000000000000000000000000000000000000602082015290565b8160005b811561212c578061211681612d1f565b91506121259050600a83612ed0565b9150612106565b60008167ffffffffffffffff81111561214757612147612a88565b6040519080825280601f01601f191660200182016040528015612171576020820181803683370190505b5090505b8415611dbd57612186600183612e8a565b9150612193600a86612ee4565b61219e906030612d58565b60f81b8183815181106121b3576121b3612cc1565b60200101907effffffffffffffffffffffffffffffffffffffffffffffffffffffffffffff1916908160001a9053506121ed600a86612ed0565b9450612175565b6001600160a01b03831661224f5761224a81600880546000838152600960205260408120829055600182018355919091527ff3f7a9fe364faab93b216da50a3214154f22a0a2b415b23a84c8169e8b636ee30155565b612272565b816001600160a01b0316836001600160a01b031614612272576122728382612500565b6001600160a01b03821661228957610b9d8161259d565b826001600160a01b0316826001600160a01b031614610b9d57610b9d828261264c565b6122b68383612690565b6122c36000848484612335565b610b9d5760405162461bcd60e51b815260206004820152603260248201527f4552433732313a207472616e7366657220746f206e6f6e20455243373231526560448201527f63656976657220696d706c656d656e7465720000000000000000000000000000606482015260840161085e565b60006001600160a01b0384163b156124f5576040517f150b7a020000000000000000000000000000000000000000000000000000000081526001600160a01b0385169063150b7a0290612392903390899088908890600401612ef8565b602060405180830381600087803b1580156123ac57600080fd5b505af19250505080156123fa575060408051601f3d9081017fffffffffffffffffffffffffffffffffffffffffffffffffffffffffffffffe01682019092526123f791810190612f34565b60015b6124aa573d808015612428576040519150601f19603f3d011682016040523d82523d6000602084013e61242d565b606091505b5080516124a25760405162461bcd60e51b815260206004820152603260248201527f4552433732313a207472616e7366657220746f206e6f6e20455243373231526560448201527f63656976657220696d706c656d656e7465720000000000000000000000000000606482015260840161085e565b805181602001fd5b7fffffffff00000000000000000000000000000000000000000000000000000000167f150b7a0200000000000000000000000000000000000000000000000000000000149050611dbd565b506001949350505050565b6000600161250d8461155a565b6125179190612e8a565b60008381526007602052604090205490915080821461256a576001600160a01b03841660009081526006602090815260408083208584528252808320548484528184208190558352600790915290208190555b5060009182526007602090815260408084208490556001600160a01b039094168352600681528383209183525290812055565b6008546000906125af90600190612e8a565b600083815260096020526040812054600880549394509092849081106125d7576125d7612cc1565b9060005260206000200154905080600883815481106125f8576125f8612cc1565b600091825260208083209091019290925582815260099091526040808220849055858252812055600880548061263057612630612f51565b6001900381819060005260206000200160009055905550505050565b60006126578361155a565b6001600160a01b039093166000908152600660209081526040808320868452825280832085905593825260079052919091209190915550565b6001600160a01b0382166126e65760405162461bcd60e51b815260206004820181905260248201527f4552433732313a206d696e7420746f20746865207a65726f2061646472657373604482015260640161085e565b6000818152600260205260409020546001600160a01b03161561274b5760405162461bcd60e51b815260206004820152601c60248201527f4552433732313a20746f6b656e20616c7265616479206d696e74656400000000604482015260640161085e565b612757600083836121f4565b6001600160a01b0382166000908152600360205260408120805460019290612780908490612d58565b909155505060008181526002602052604080822080547fffffffffffffffffffffffff0000000000000000000000000000000000000000166001600160a01b03861690811790915590518392907fddf252ad1be2c89b69c2b068fc378daa952ba7f163c4a11628f55a4df523b3ef908290a45050565b82805461280290612c6d565b90600052602060002090601f016020900481019282612824576000855561286a565b82601f1061283d57805160ff191683800117855561286a565b8280016001018555821561286a579182015b8281111561286a57825182559160200191906001019061284f565b5061287692915061287a565b5090565b5b80821115612876576000815560010161287b565b7fffffffff0000000000000000000000000000000000000000000000000000000081168114610d9c57600080fd5b6000602082840312156128cf57600080fd5b8135611a018161288f565b803580151581146128ea57600080fd5b919050565b60006020828403121561290157600080fd5b611a01826128da565b60006020828403121561291c57600080fd5b5035919050565b60005b8381101561293e578181015183820152602001612926565b8381111561133d5750506000910152565b60008151808452612967816020860160208601612923565b601f017fffffffffffffffffffffffffffffffffffffffffffffffffffffffffffffffe0169290920160200192915050565b602081526000611a01602083018461294f565b80356001600160a01b03811681146128ea57600080fd5b600080604083850312156129d657600080fd5b6129df836129ac565b946020939093013593505050565b600080600060608486031215612a0257600080fd5b612a0b846129ac565b9250612a19602085016129ac565b9150604084013590509250925092565b600060208284031215612a3b57600080fd5b611a01826129ac565b6020808252825182820181905260009190848201906040850190845b81811015612a7c57835183529284019291840191600101612a60565b50909695505050505050565b7f4e487b7100000000000000000000000000000000000000000000000000000000600052604160045260246000fd5b600067ffffffffffffffff80841115612ad257612ad2612a88565b604051601f85017fffffffffffffffffffffffffffffffffffffffffffffffffffffffffffffffe0908116603f01168101908282118183101715612b1857612b18612a88565b81604052809350858152868686011115612b3157600080fd5b858560208301376000602087830101525050509392505050565b600060208284031215612b5d57600080fd5b813567ffffffffffffffff811115612b7457600080fd5b8201601f81018413612b8557600080fd5b611dbd84823560208401612ab7565b60008060408385031215612ba757600080fd5b612bb0836129ac565b9150612bbe602084016128da565b90509250929050565b60008060008060808587031215612bdd57600080fd5b612be6856129ac565b9350612bf4602086016129ac565b925060408501359150606085013567ffffffffffffffff811115612c1757600080fd5b8501601f81018713612c2857600080fd5b612c3787823560208401612ab7565b91505092959194509250565b60008060408385031215612c5657600080fd5b612c5f836129ac565b9150612bbe602084016129ac565b600181811c90821680612c8157607f821691505b60208210811415612cbb577f4e487b7100000000000000000000000000000000000000000000000000000000600052602260045260246000fd5b50919050565b7f4e487b7100000000000000000000000000000000000000000000000000000000600052603260045260246000fd5b7f4e487b7100000000000000000000000000000000000000000000000000000000600052601160045260246000fd5b60007fffffffffffffffffffffffffffffffffffffffffffffffffffffffffffffffff821415612d5157612d51612cf0565b5060010190565b60008219821115612d6b57612d6b612cf0565b500190565b6000817fffffffffffffffffffffffffffffffffffffffffffffffffffffffffffffffff0483118215151615612da857612da8612cf0565b500290565b600084516020612dc08285838a01612923565b855191840191612dd38184848a01612923565b8554920191600090600181811c9080831680612df057607f831692505b858310811415612e27577f4e487b710000000000000000000000000000000000000000000000000000000085526022600452602485fd5b808015612e3b5760018114612e4c57612e79565b60ff19851688528388019550612e79565b60008b81526020902060005b85811015612e715781548a820152908401908801612e58565b505083880195505b50939b9a5050505050505050505050565b600082821015612e9c57612e9c612cf0565b500390565b7f4e487b7100000000000000000000000000000000000000000000000000000000600052601260045260246000fd5b600082612edf57612edf612ea1565b500490565b600082612ef357612ef3612ea1565b500690565b60006001600160a01b03808716835280861660208401525083604083015260806060830152612f2a608083018461294f565b9695505050505050565b600060208284031215612f4657600080fd5b8151611a018161288f565b7f4e487b7100000000000000000000000000000000000000000000000000000000600052603160045260246000fdfea2646970667358221220a1d732fd537730161aa14f02e68338a2c69528ad8e1d3e0f1c03d092ac8d4bd464736f6c63430008090033",
  "immutableReferences": {},
  "source": "// SPDX-License-Identifier: MIT\n\npragma solidity ^0.8.9;\n\nimport \"@openzeppelin/contracts/token/ERC721/extensions/ERC721Enumerable.sol\";\nimport \"@openzeppelin/contracts/access/Ownable.sol\";\n\n\ncontract AlienKongz is ERC721Enumerable, Ownable {\n    using Strings for uint256;\n\n    string public baseURI;\n    string public baseExtension = \".json\";\n\n    uint256 public cost = 0.03 ether;\n    uint256 public maxSupply = 1000;\n    bool public paused = false;\n    uint256 public maxMintAmount = 10;\n    uint256 public maxWLMintAmount = 2;\n\n    mapping(address => bool) public whitelisted;\n\n    constructor(\n        string memory _name,\n        string memory _symbol,\n        string memory _initBaseURI\n    ) ERC721(_name, _symbol) {\n        setBaseURI(_initBaseURI);\n    }\n\n    //internal functions\n    function _baseURI() internal view virtual override returns (string memory) {\n        return baseURI;\n    }\n\n\n    //public\n    function mint(address _to) public payable {\n        uint supply = totalSupply();\n        require(!paused);\n        require(supply + 1 <= maxSupply);\n\n        if (msg.sender != owner()){\n            if (whitelisted[msg.sender] != true) {\n                require(msg.value >= cost);\n            }\n        }\n        _safeMint(_to, supply + 1);\n    }\n\n    function mintMany(address _to, uint256 _mintAmount) public payable {\n        uint256 supply = totalSupply();\n        require(!paused, \"Contract is paused, contact owner to unpause it\");\n        require(supply + _mintAmount <= maxSupply, \"Minted amount would exceed maxSupply\");\n        require(_mintAmount <= maxMintAmount, \"Can not mint more than the maxMintAmount\");\n        \n        if (whitelisted[msg.sender] != false) {\n            require(_mintAmount <= maxWLMintAmount, \"White Listed address can not mint more than the maxWLMintAmount\");\n        }\n\n        if (msg.sender != owner()){\n            if (whitelisted[msg.sender] != true) {\n                require(msg.value >= cost * _mintAmount, \"Insufficient funds sent to transaction\");\n            }\n        }\n\n        for (uint256 i = 1; i <= _mintAmount; i++) {\n            _safeMint(_to, supply + i);\n        }\n    }\n\n    function walletOfOwner(address _owner) public view returns (uint256[] memory){\n        uint256 ownerTokenCount = balanceOf(_owner);\n        uint256[] memory tokenIds = new uint256[](ownerTokenCount);\n        for (uint256 i; i < ownerTokenCount; i++) {\n            tokenIds[i] = tokenOfOwnerByIndex(_owner, i);\n        }\n        return tokenIds;\n    }\n\n    function tokenURI(uint256 tokenId) public view virtual override returns (string memory){\n        require(_exists(tokenId), \"ERC721Metadata: URI query for nonexistent token\");\n        string memory currentBaseURI = baseURI;\n        return bytes(currentBaseURI).length > 0\n            ? string(abi.encodePacked(currentBaseURI, tokenId.toString(), baseExtension))\n            : \"\";\n    }\n\n    //owner functions\n    function setCost(uint256 _newCost) public onlyOwner {\n        cost = _newCost;\n    }\n\n    function setBaseURI(string memory _newBaseURI) public onlyOwner {\n        baseURI = _newBaseURI;\n    }\n\n    function setBaseExtension(string memory _newBaseExtension) public onlyOwner {\n        baseExtension = _newBaseExtension;\n    }\n\n    function pause(bool _state) public onlyOwner {\n        paused = _state;\n    }\n\n    function increaseMaxSupply(uint256 _newMaxSupply) public onlyOwner {\n        require(_newMaxSupply > maxSupply, \"Can not set a new maxSupply lower than the previous supply\");\n        maxSupply = _newMaxSupply;\n    }\n\n    function setMaxMintAmount(uint256 _newMaxMintAmount) public onlyOwner {\n        maxMintAmount = _newMaxMintAmount;\n    }\n\n    function setMaxWLMintAmount(uint256 _newMaxWLMintAmount) public onlyOwner {\n        maxWLMintAmount = _newMaxWLMintAmount;\n    }\n\n    function whitelistUser(address _user) public onlyOwner {\n        whitelisted[_user] = true;\n    }\n\n    function removeWhiteListedUser(address _user) public onlyOwner {\n        whitelisted[_user] = false;\n    }\n\n    function withdraw() public payable onlyOwner {\n        (bool os, ) = payable(owner()).call{value: address(this).balance}(\"\");\n        require(os);\n    }\n\n}",
  "sourcePath": "/Users/manueles95/Desktop/NFT/ContractMachine/contracts/AlienKongz.sol",
  "compiler": {
    "name": "solc",
    "version": "0.8.9+commit.e5eed63a.Emscripten.clang"
  },
  "schemaVersion": "3.4.3",
  "updatedAt": "2022-01-20T03:56:45.410Z",
  "networkType": "ethereum",
  "devdoc": {
    "kind": "dev",
    "methods": {
      "approve(address,uint256)": {
        "details": "See {IERC721-approve}."
      },
      "balanceOf(address)": {
        "details": "See {IERC721-balanceOf}."
      },
      "getApproved(uint256)": {
        "details": "See {IERC721-getApproved}."
      },
      "isApprovedForAll(address,address)": {
        "details": "See {IERC721-isApprovedForAll}."
      },
      "name()": {
        "details": "See {IERC721Metadata-name}."
      },
      "owner()": {
        "details": "Returns the address of the current owner."
      },
      "ownerOf(uint256)": {
        "details": "See {IERC721-ownerOf}."
      },
      "renounceOwnership()": {
        "details": "Leaves the contract without owner. It will not be possible to call `onlyOwner` functions anymore. Can only be called by the current owner. NOTE: Renouncing ownership will leave the contract without an owner, thereby removing any functionality that is only available to the owner."
      },
      "safeTransferFrom(address,address,uint256)": {
        "details": "See {IERC721-safeTransferFrom}."
      },
      "safeTransferFrom(address,address,uint256,bytes)": {
        "details": "See {IERC721-safeTransferFrom}."
      },
      "setApprovalForAll(address,bool)": {
        "details": "See {IERC721-setApprovalForAll}."
      },
      "supportsInterface(bytes4)": {
        "details": "See {IERC165-supportsInterface}."
      },
      "symbol()": {
        "details": "See {IERC721Metadata-symbol}."
      },
      "tokenByIndex(uint256)": {
        "details": "See {IERC721Enumerable-tokenByIndex}."
      },
      "tokenOfOwnerByIndex(address,uint256)": {
        "details": "See {IERC721Enumerable-tokenOfOwnerByIndex}."
      },
      "tokenURI(uint256)": {
        "details": "See {IERC721Metadata-tokenURI}."
      },
      "totalSupply()": {
        "details": "See {IERC721Enumerable-totalSupply}."
      },
      "transferFrom(address,address,uint256)": {
        "details": "See {IERC721-transferFrom}."
      },
      "transferOwnership(address)": {
        "details": "Transfers ownership of the contract to a new account (`newOwner`). Can only be called by the current owner."
      }
    },
    "version": 1
  },
  "userdoc": {
    "kind": "user",
    "methods": {},
    "version": 1
  }
}