{
  "contractName": "OrgvsmTest",
  "abi": [
    {
      "inputs": [
        {
          "internalType": "string",
          "name": "_name",
          "type": "string"
        },
        {
          "internalType": "string",
          "name": "_symbol",
          "type": "string"
        },
        {
          "internalType": "string",
          "name": "_initBaseURI",
          "type": "string"
        }
      ],
      "stateMutability": "nonpayable",
      "type": "constructor"
    },
    {
      "anonymous": false,
      "inputs": [
        {
          "indexed": true,
          "internalType": "address",
          "name": "owner",
          "type": "address"
        },
        {
          "indexed": true,
          "internalType": "address",
          "name": "approved",
          "type": "address"
        },
        {
          "indexed": true,
          "internalType": "uint256",
          "name": "tokenId",
          "type": "uint256"
        }
      ],
      "name": "Approval",
      "type": "event"
    },
    {
      "anonymous": false,
      "inputs": [
        {
          "indexed": true,
          "internalType": "address",
          "name": "owner",
          "type": "address"
        },
        {
          "indexed": true,
          "internalType": "address",
          "name": "operator",
          "type": "address"
        },
        {
          "indexed": false,
          "internalType": "bool",
          "name": "approved",
          "type": "bool"
        }
      ],
      "name": "ApprovalForAll",
      "type": "event"
    },
    {
      "anonymous": false,
      "inputs": [
        {
          "indexed": true,
          "internalType": "address",
          "name": "previousOwner",
          "type": "address"
        },
        {
          "indexed": true,
          "internalType": "address",
          "name": "newOwner",
          "type": "address"
        }
      ],
      "name": "OwnershipTransferred",
      "type": "event"
    },
    {
      "anonymous": false,
      "inputs": [
        {
          "indexed": true,
          "internalType": "address",
          "name": "from",
          "type": "address"
        },
        {
          "indexed": true,
          "internalType": "address",
          "name": "to",
          "type": "address"
        },
        {
          "indexed": true,
          "internalType": "uint256",
          "name": "tokenId",
          "type": "uint256"
        }
      ],
      "name": "Transfer",
      "type": "event"
    },
    {
      "inputs": [
        {
          "internalType": "address",
          "name": "to",
          "type": "address"
        },
        {
          "internalType": "uint256",
          "name": "tokenId",
          "type": "uint256"
        }
      ],
      "name": "approve",
      "outputs": [],
      "stateMutability": "nonpayable",
      "type": "function"
    },
    {
      "inputs": [
        {
          "internalType": "address",
          "name": "owner",
          "type": "address"
        }
      ],
      "name": "balanceOf",
      "outputs": [
        {
          "internalType": "uint256",
          "name": "",
          "type": "uint256"
        }
      ],
      "stateMutability": "view",
      "type": "function",
      "constant": true
    },
    {
      "inputs": [],
      "name": "baseExtension",
      "outputs": [
        {
          "internalType": "string",
          "name": "",
          "type": "string"
        }
      ],
      "stateMutability": "view",
      "type": "function",
      "constant": true
    },
    {
      "inputs": [],
      "name": "baseURI",
      "outputs": [
        {
          "internalType": "string",
          "name": "",
          "type": "string"
        }
      ],
      "stateMutability": "view",
      "type": "function",
      "constant": true
    },
    {
      "inputs": [],
      "name": "cost",
      "outputs": [
        {
          "internalType": "uint256",
          "name": "",
          "type": "uint256"
        }
      ],
      "stateMutability": "view",
      "type": "function",
      "constant": true
    },
    {
      "inputs": [
        {
          "internalType": "uint256",
          "name": "tokenId",
          "type": "uint256"
        }
      ],
      "name": "getApproved",
      "outputs": [
        {
          "internalType": "address",
          "name": "",
          "type": "address"
        }
      ],
      "stateMutability": "view",
      "type": "function",
      "constant": true
    },
    {
      "inputs": [
        {
          "internalType": "address",
          "name": "owner",
          "type": "address"
        },
        {
          "internalType": "address",
          "name": "operator",
          "type": "address"
        }
      ],
      "name": "isApprovedForAll",
      "outputs": [
        {
          "internalType": "bool",
          "name": "",
          "type": "bool"
        }
      ],
      "stateMutability": "view",
      "type": "function",
      "constant": true
    },
    {
      "inputs": [],
      "name": "maxSupply",
      "outputs": [
        {
          "internalType": "uint256",
          "name": "",
          "type": "uint256"
        }
      ],
      "stateMutability": "view",
      "type": "function",
      "constant": true
    },
    {
      "inputs": [],
      "name": "name",
      "outputs": [
        {
          "internalType": "string",
          "name": "",
          "type": "string"
        }
      ],
      "stateMutability": "view",
      "type": "function",
      "constant": true
    },
    {
      "inputs": [],
      "name": "owner",
      "outputs": [
        {
          "internalType": "address",
          "name": "",
          "type": "address"
        }
      ],
      "stateMutability": "view",
      "type": "function",
      "constant": true
    },
    {
      "inputs": [
        {
          "internalType": "uint256",
          "name": "tokenId",
          "type": "uint256"
        }
      ],
      "name": "ownerOf",
      "outputs": [
        {
          "internalType": "address",
          "name": "",
          "type": "address"
        }
      ],
      "stateMutability": "view",
      "type": "function",
      "constant": true
    },
    {
      "inputs": [],
      "name": "paused",
      "outputs": [
        {
          "internalType": "bool",
          "name": "",
          "type": "bool"
        }
      ],
      "stateMutability": "view",
      "type": "function",
      "constant": true
    },
    {
      "inputs": [],
      "name": "renounceOwnership",
      "outputs": [],
      "stateMutability": "nonpayable",
      "type": "function"
    },
    {
      "inputs": [
        {
          "internalType": "address",
          "name": "from",
          "type": "address"
        },
        {
          "internalType": "address",
          "name": "to",
          "type": "address"
        },
        {
          "internalType": "uint256",
          "name": "tokenId",
          "type": "uint256"
        }
      ],
      "name": "safeTransferFrom",
      "outputs": [],
      "stateMutability": "nonpayable",
      "type": "function"
    },
    {
      "inputs": [
        {
          "internalType": "address",
          "name": "from",
          "type": "address"
        },
        {
          "internalType": "address",
          "name": "to",
          "type": "address"
        },
        {
          "internalType": "uint256",
          "name": "tokenId",
          "type": "uint256"
        },
        {
          "internalType": "bytes",
          "name": "_data",
          "type": "bytes"
        }
      ],
      "name": "safeTransferFrom",
      "outputs": [],
      "stateMutability": "nonpayable",
      "type": "function"
    },
    {
      "inputs": [
        {
          "internalType": "address",
          "name": "operator",
          "type": "address"
        },
        {
          "internalType": "bool",
          "name": "approved",
          "type": "bool"
        }
      ],
      "name": "setApprovalForAll",
      "outputs": [],
      "stateMutability": "nonpayable",
      "type": "function"
    },
    {
      "inputs": [
        {
          "internalType": "bytes4",
          "name": "interfaceId",
          "type": "bytes4"
        }
      ],
      "name": "supportsInterface",
      "outputs": [
        {
          "internalType": "bool",
          "name": "",
          "type": "bool"
        }
      ],
      "stateMutability": "view",
      "type": "function",
      "constant": true
    },
    {
      "inputs": [],
      "name": "symbol",
      "outputs": [
        {
          "internalType": "string",
          "name": "",
          "type": "string"
        }
      ],
      "stateMutability": "view",
      "type": "function",
      "constant": true
    },
    {
      "inputs": [
        {
          "internalType": "uint256",
          "name": "index",
          "type": "uint256"
        }
      ],
      "name": "tokenByIndex",
      "outputs": [
        {
          "internalType": "uint256",
          "name": "",
          "type": "uint256"
        }
      ],
      "stateMutability": "view",
      "type": "function",
      "constant": true
    },
    {
      "inputs": [
        {
          "internalType": "address",
          "name": "owner",
          "type": "address"
        },
        {
          "internalType": "uint256",
          "name": "index",
          "type": "uint256"
        }
      ],
      "name": "tokenOfOwnerByIndex",
      "outputs": [
        {
          "internalType": "uint256",
          "name": "",
          "type": "uint256"
        }
      ],
      "stateMutability": "view",
      "type": "function",
      "constant": true
    },
    {
      "inputs": [],
      "name": "totalSupply",
      "outputs": [
        {
          "internalType": "uint256",
          "name": "",
          "type": "uint256"
        }
      ],
      "stateMutability": "view",
      "type": "function",
      "constant": true
    },
    {
      "inputs": [
        {
          "internalType": "address",
          "name": "from",
          "type": "address"
        },
        {
          "internalType": "address",
          "name": "to",
          "type": "address"
        },
        {
          "internalType": "uint256",
          "name": "tokenId",
          "type": "uint256"
        }
      ],
      "name": "transferFrom",
      "outputs": [],
      "stateMutability": "nonpayable",
      "type": "function"
    },
    {
      "inputs": [
        {
          "internalType": "address",
          "name": "newOwner",
          "type": "address"
        }
      ],
      "name": "transferOwnership",
      "outputs": [],
      "stateMutability": "nonpayable",
      "type": "function"
    },
    {
      "inputs": [
        {
          "internalType": "address",
          "name": "",
          "type": "address"
        }
      ],
      "name": "whitelisted",
      "outputs": [
        {
          "internalType": "bool",
          "name": "",
          "type": "bool"
        }
      ],
      "stateMutability": "view",
      "type": "function",
      "constant": true
    },
    {
      "inputs": [
        {
          "internalType": "address",
          "name": "_to",
          "type": "address"
        }
      ],
      "name": "mint",
      "outputs": [],
      "stateMutability": "payable",
      "type": "function",
      "payable": true
    },
    {
      "inputs": [
        {
          "internalType": "address",
          "name": "_owner",
          "type": "address"
        }
      ],
      "name": "walletOfOwner",
      "outputs": [
        {
          "internalType": "uint256[]",
          "name": "",
          "type": "uint256[]"
        }
      ],
      "stateMutability": "view",
      "type": "function",
      "constant": true
    },
    {
      "inputs": [
        {
          "internalType": "uint256",
          "name": "tokenId",
          "type": "uint256"
        }
      ],
      "name": "tokenURI",
      "outputs": [
        {
          "internalType": "string",
          "name": "",
          "type": "string"
        }
      ],
      "stateMutability": "view",
      "type": "function",
      "constant": true
    },
    {
      "inputs": [
        {
          "internalType": "uint256",
          "name": "_newCost",
          "type": "uint256"
        }
      ],
      "name": "setCost",
      "outputs": [],
      "stateMutability": "nonpayable",
      "type": "function"
    },
    {
      "inputs": [
        {
          "internalType": "string",
          "name": "_newBaseURI",
          "type": "string"
        }
      ],
      "name": "setBaseURI",
      "outputs": [],
      "stateMutability": "nonpayable",
      "type": "function"
    },
    {
      "inputs": [
        {
          "internalType": "string",
          "name": "_newBaseExtension",
          "type": "string"
        }
      ],
      "name": "setBaseExtension",
      "outputs": [],
      "stateMutability": "nonpayable",
      "type": "function"
    },
    {
      "inputs": [
        {
          "internalType": "bool",
          "name": "_state",
          "type": "bool"
        }
      ],
      "name": "pause",
      "outputs": [],
      "stateMutability": "nonpayable",
      "type": "function"
    },
    {
      "inputs": [
        {
          "internalType": "uint256",
          "name": "_newMaxSupply",
          "type": "uint256"
        }
      ],
      "name": "increaseMaxSupply",
      "outputs": [],
      "stateMutability": "nonpayable",
      "type": "function"
    },
    {
      "inputs": [
        {
          "internalType": "address",
          "name": "_user",
          "type": "address"
        }
      ],
      "name": "whitelistUser",
      "outputs": [],
      "stateMutability": "nonpayable",
      "type": "function"
    },
    {
      "inputs": [
        {
          "internalType": "address",
          "name": "_user",
          "type": "address"
        }
      ],
      "name": "removeWhiteListedUser",
      "outputs": [],
      "stateMutability": "nonpayable",
      "type": "function"
    },
    {
      "inputs": [],
      "name": "withdraw",
      "outputs": [],
      "stateMutability": "payable",
      "type": "function",
      "payable": true
    }
  ],
  "bytecode": "0x60c06040526005608081905264173539b7b760d91b60a09081526200002891600c9190620001a1565b50662386f26fc10000600d556064600e55600f805460ff191690553480156200005057600080fd5b5060405162002ebd38038062002ebd833981016040819052620000739162000314565b8251839083906200008c906000906020850190620001a1565b508051620000a2906001906020840190620001a1565b505050620000bf620000b9620000d360201b60201c565b620000d7565b620000ca8162000129565b505050620003e2565b3390565b600a80546001600160a01b038381166001600160a01b0319831681179093556040519116919082907f8be0079c531659141344cd1fd0a4f28419497f9722a3daafe3b4186f6b6457e090600090a35050565b600a546001600160a01b03163314620001885760405162461bcd60e51b815260206004820181905260248201527f4f776e61626c653a2063616c6c6572206973206e6f7420746865206f776e6572604482015260640160405180910390fd5b80516200019d90600b906020840190620001a1565b5050565b828054620001af90620003a5565b90600052602060002090601f016020900481019282620001d357600085556200021e565b82601f10620001ee57805160ff19168380011785556200021e565b828001600101855582156200021e579182015b828111156200021e57825182559160200191906001019062000201565b506200022c92915062000230565b5090565b5b808211156200022c576000815560010162000231565b634e487b7160e01b600052604160045260246000fd5b600082601f8301126200026f57600080fd5b81516001600160401b03808211156200028c576200028c62000247565b604051601f8301601f19908116603f01168101908282118183101715620002b757620002b762000247565b81604052838152602092508683858801011115620002d457600080fd5b600091505b83821015620002f85785820183015181830184015290820190620002d9565b838211156200030a5760008385830101525b9695505050505050565b6000806000606084860312156200032a57600080fd5b83516001600160401b03808211156200034257600080fd5b62000350878388016200025d565b945060208601519150808211156200036757600080fd5b62000375878388016200025d565b935060408601519150808211156200038c57600080fd5b506200039b868287016200025d565b9150509250925092565b600181811c90821680620003ba57607f821691505b60208210811415620003dc57634e487b7160e01b600052602260045260246000fd5b50919050565b612acb80620003f26000396000f3fe6080604052600436106102345760003560e01c80636352211e11610138578063a22cb465116100b0578063d5abeb011161007f578063da3ef23f11610064578063da3ef23f1461061d578063e985e9c51461063d578063f2fde38b1461068657600080fd5b8063d5abeb01146105d7578063d936547e146105ed57600080fd5b8063a22cb46514610562578063b88d4fde14610582578063c6682862146105a2578063c87b56dd146105b757600080fd5b806370a08231116101075780638da5cb5b116100ec5780638da5cb5b1461050f57806390edbfee1461052d57806395d89b411461054d57600080fd5b806370a08231146104da578063715018a6146104fa57600080fd5b80636352211e1461047257806364993789146104925780636a627842146104b25780636c0360eb146104c557600080fd5b80632f745c59116101cb57806344a0d68a1161019a5780634f6ccce71161017f5780634f6ccce71461041857806355f804b3146104385780635c975abb1461045857600080fd5b806344a0d68a146103d85780634a4c560d146103f857600080fd5b80632f745c59146103635780633ccfd60b1461038357806342842e0e1461038b578063438b6300146103ab57600080fd5b8063095ea7b311610207578063095ea7b3146102ea57806313faede61461030a57806318160ddd1461032e57806323b872dd1461034357600080fd5b806301ffc9a71461023957806302329a291461026e57806306fdde0314610290578063081812fc146102b2575b600080fd5b34801561024557600080fd5b5061025961025436600461240f565b6106a6565b60405190151581526020015b60405180910390f35b34801561027a57600080fd5b5061028e610289366004612441565b610702565b005b34801561029c57600080fd5b506102a5610774565b60405161026591906124d2565b3480156102be57600080fd5b506102d26102cd3660046124e5565b610806565b6040516001600160a01b039091168152602001610265565b3480156102f657600080fd5b5061028e610305366004612515565b6108ac565b34801561031657600080fd5b50610320600d5481565b604051908152602001610265565b34801561033a57600080fd5b50600854610320565b34801561034f57600080fd5b5061028e61035e36600461253f565b6109de565b34801561036f57600080fd5b5061032061037e366004612515565b610a65565b61028e610b0d565b34801561039757600080fd5b5061028e6103a636600461253f565b610bdb565b3480156103b757600080fd5b506103cb6103c636600461257b565b610bf6565b6040516102659190612596565b3480156103e457600080fd5b5061028e6103f33660046124e5565b610c98565b34801561040457600080fd5b5061028e61041336600461257b565b610cf7565b34801561042457600080fd5b506103206104333660046124e5565b610d75565b34801561044457600080fd5b5061028e61045336600461269d565b610e19565b34801561046457600080fd5b50600f546102599060ff1681565b34801561047e57600080fd5b506102d261048d3660046124e5565b610e8a565b34801561049e57600080fd5b5061028e6104ad36600461257b565b610f15565b61028e6104c036600461257b565b610f90565b3480156104d157600080fd5b506102a5611018565b3480156104e657600080fd5b506103206104f536600461257b565b6110a6565b34801561050657600080fd5b5061028e611140565b34801561051b57600080fd5b50600a546001600160a01b03166102d2565b34801561053957600080fd5b5061028e6105483660046124e5565b6111a6565b34801561055957600080fd5b506102a561127c565b34801561056e57600080fd5b5061028e61057d3660046126e6565b61128b565b34801561058e57600080fd5b5061028e61059d366004612719565b611350565b3480156105ae57600080fd5b506102a56113de565b3480156105c357600080fd5b506102a56105d23660046124e5565b6113eb565b3480156105e357600080fd5b50610320600e5481565b3480156105f957600080fd5b5061025961060836600461257b565b60106020526000908152604090205460ff1681565b34801561062957600080fd5b5061028e61063836600461269d565b61155a565b34801561064957600080fd5b50610259610658366004612795565b6001600160a01b03918216600090815260056020908152604080832093909416825291909152205460ff1690565b34801561069257600080fd5b5061028e6106a136600461257b565b6115c7565b60007fffffffff0000000000000000000000000000000000000000000000000000000082167f780e9d630000000000000000000000000000000000000000000000000000000014806106fc57506106fc826116a6565b92915050565b600a546001600160a01b031633146107615760405162461bcd60e51b815260206004820181905260248201527f4f776e61626c653a2063616c6c6572206973206e6f7420746865206f776e657260448201526064015b60405180910390fd5b600f805460ff1916911515919091179055565b606060008054610783906127bf565b80601f01602080910402602001604051908101604052809291908181526020018280546107af906127bf565b80156107fc5780601f106107d1576101008083540402835291602001916107fc565b820191906000526020600020905b8154815290600101906020018083116107df57829003601f168201915b5050505050905090565b6000818152600260205260408120546001600160a01b03166108905760405162461bcd60e51b815260206004820152602c60248201527f4552433732313a20617070726f76656420717565727920666f72206e6f6e657860448201527f697374656e7420746f6b656e00000000000000000000000000000000000000006064820152608401610758565b506000908152600460205260409020546001600160a01b031690565b60006108b782610e8a565b9050806001600160a01b0316836001600160a01b031614156109415760405162461bcd60e51b815260206004820152602160248201527f4552433732313a20617070726f76616c20746f2063757272656e74206f776e6560448201527f72000000000000000000000000000000000000000000000000000000000000006064820152608401610758565b336001600160a01b038216148061095d575061095d8133610658565b6109cf5760405162461bcd60e51b815260206004820152603860248201527f4552433732313a20617070726f76652063616c6c6572206973206e6f74206f7760448201527f6e6572206e6f7220617070726f76656420666f7220616c6c00000000000000006064820152608401610758565b6109d98383611789565b505050565b6109e8338261180f565b610a5a5760405162461bcd60e51b815260206004820152603160248201527f4552433732313a207472616e736665722063616c6c6572206973206e6f74206f60448201527f776e6572206e6f7220617070726f7665640000000000000000000000000000006064820152608401610758565b6109d9838383611917565b6000610a70836110a6565b8210610ae45760405162461bcd60e51b815260206004820152602b60248201527f455243373231456e756d657261626c653a206f776e657220696e646578206f7560448201527f74206f6620626f756e64730000000000000000000000000000000000000000006064820152608401610758565b506001600160a01b03919091166000908152600660209081526040808320938352929052205490565b600a546001600160a01b03163314610b675760405162461bcd60e51b815260206004820181905260248201527f4f776e61626c653a2063616c6c6572206973206e6f7420746865206f776e65726044820152606401610758565b6000610b7b600a546001600160a01b031690565b6001600160a01b03164760405160006040518083038185875af1925050503d8060008114610bc5576040519150601f19603f3d011682016040523d82523d6000602084013e610bca565b606091505b5050905080610bd857600080fd5b50565b6109d983838360405180602001604052806000815250611350565b60606000610c03836110a6565b905060008167ffffffffffffffff811115610c2057610c206125da565b604051908082528060200260200182016040528015610c49578160200160208202803683370190505b50905060005b82811015610c9057610c618582610a65565b828281518110610c7357610c73612813565b602090810291909101015280610c8881612871565b915050610c4f565b509392505050565b600a546001600160a01b03163314610cf25760405162461bcd60e51b815260206004820181905260248201527f4f776e61626c653a2063616c6c6572206973206e6f7420746865206f776e65726044820152606401610758565b600d55565b600a546001600160a01b03163314610d515760405162461bcd60e51b815260206004820181905260248201527f4f776e61626c653a2063616c6c6572206973206e6f7420746865206f776e65726044820152606401610758565b6001600160a01b03166000908152601060205260409020805460ff19166001179055565b6000610d8060085490565b8210610df45760405162461bcd60e51b815260206004820152602c60248201527f455243373231456e756d657261626c653a20676c6f62616c20696e646578206f60448201527f7574206f6620626f756e647300000000000000000000000000000000000000006064820152608401610758565b60088281548110610e0757610e07612813565b90600052602060002001549050919050565b600a546001600160a01b03163314610e735760405162461bcd60e51b815260206004820181905260248201527f4f776e61626c653a2063616c6c6572206973206e6f7420746865206f776e65726044820152606401610758565b8051610e8690600b906020840190612348565b5050565b6000818152600260205260408120546001600160a01b0316806106fc5760405162461bcd60e51b815260206004820152602960248201527f4552433732313a206f776e657220717565727920666f72206e6f6e657869737460448201527f656e7420746f6b656e00000000000000000000000000000000000000000000006064820152608401610758565b600a546001600160a01b03163314610f6f5760405162461bcd60e51b815260206004820181905260248201527f4f776e61626c653a2063616c6c6572206973206e6f7420746865206f776e65726044820152606401610758565b6001600160a01b03166000908152601060205260409020805460ff19169055565b6000610f9b60085490565b600f5490915060ff1615610fae57600080fd5b600e54610fbc8260016128aa565b1115610fc757600080fd5b600a546001600160a01b03163314611004573360009081526010602052604090205460ff16151560011461100457600d5434101561100457600080fd5b610e86826110138360016128aa565b611b07565b600b8054611025906127bf565b80601f0160208091040260200160405190810160405280929190818152602001828054611051906127bf565b801561109e5780601f106110735761010080835404028352916020019161109e565b820191906000526020600020905b81548152906001019060200180831161108157829003601f168201915b505050505081565b60006001600160a01b0382166111245760405162461bcd60e51b815260206004820152602a60248201527f4552433732313a2062616c616e636520717565727920666f7220746865207a6560448201527f726f2061646472657373000000000000000000000000000000000000000000006064820152608401610758565b506001600160a01b031660009081526003602052604090205490565b600a546001600160a01b0316331461119a5760405162461bcd60e51b815260206004820181905260248201527f4f776e61626c653a2063616c6c6572206973206e6f7420746865206f776e65726044820152606401610758565b6111a46000611b21565b565b600a546001600160a01b031633146112005760405162461bcd60e51b815260206004820181905260248201527f4f776e61626c653a2063616c6c6572206973206e6f7420746865206f776e65726044820152606401610758565b600e5481116112775760405162461bcd60e51b815260206004820152603a60248201527f43616e206e6f74207365742061206e6577206d6178537570706c79206c6f776560448201527f72207468616e207468652070726576696f757320737570706c790000000000006064820152608401610758565b600e55565b606060018054610783906127bf565b6001600160a01b0382163314156112e45760405162461bcd60e51b815260206004820152601960248201527f4552433732313a20617070726f766520746f2063616c6c6572000000000000006044820152606401610758565b3360008181526005602090815260408083206001600160a01b03871680855290835292819020805460ff191686151590811790915590519081529192917f17307eab39ab6107e8899845ad3d59bd9653f200f220920489ca2b5937696c31910160405180910390a35050565b61135a338361180f565b6113cc5760405162461bcd60e51b815260206004820152603160248201527f4552433732313a207472616e736665722063616c6c6572206973206e6f74206f60448201527f776e6572206e6f7220617070726f7665640000000000000000000000000000006064820152608401610758565b6113d884848484611b8b565b50505050565b600c8054611025906127bf565b6000818152600260205260409020546060906001600160a01b03166114785760405162461bcd60e51b815260206004820152602f60248201527f4552433732314d657461646174613a2055524920717565727920666f72206e6f60448201527f6e6578697374656e7420746f6b656e00000000000000000000000000000000006064820152608401610758565b6000600b8054611487906127bf565b80601f01602080910402602001604051908101604052809291908181526020018280546114b3906127bf565b80156115005780601f106114d557610100808354040283529160200191611500565b820191906000526020600020905b8154815290600101906020018083116114e357829003601f168201915b5050505050905060008151116115255760405180602001604052806000815250611553565b8061152f84611c14565b600c604051602001611543939291906128c2565b6040516020818303038152906040525b9392505050565b600a546001600160a01b031633146115b45760405162461bcd60e51b815260206004820181905260248201527f4f776e61626c653a2063616c6c6572206973206e6f7420746865206f776e65726044820152606401610758565b8051610e8690600c906020840190612348565b600a546001600160a01b031633146116215760405162461bcd60e51b815260206004820181905260248201527f4f776e61626c653a2063616c6c6572206973206e6f7420746865206f776e65726044820152606401610758565b6001600160a01b03811661169d5760405162461bcd60e51b815260206004820152602660248201527f4f776e61626c653a206e6577206f776e657220697320746865207a65726f206160448201527f64647265737300000000000000000000000000000000000000000000000000006064820152608401610758565b610bd881611b21565b60007fffffffff0000000000000000000000000000000000000000000000000000000082167f80ac58cd00000000000000000000000000000000000000000000000000000000148061173957507fffffffff0000000000000000000000000000000000000000000000000000000082167f5b5e139f00000000000000000000000000000000000000000000000000000000145b806106fc57507f01ffc9a7000000000000000000000000000000000000000000000000000000007fffffffff000000000000000000000000000000000000000000000000000000008316146106fc565b600081815260046020526040902080547fffffffffffffffffffffffff0000000000000000000000000000000000000000166001600160a01b03841690811790915581906117d682610e8a565b6001600160a01b03167f8c5be1e5ebec7d5bd14f71427d1e84f3dd0314c0f7b2291e5b200ac8c7c3b92560405160405180910390a45050565b6000818152600260205260408120546001600160a01b03166118995760405162461bcd60e51b815260206004820152602c60248201527f4552433732313a206f70657261746f7220717565727920666f72206e6f6e657860448201527f697374656e7420746f6b656e00000000000000000000000000000000000000006064820152608401610758565b60006118a483610e8a565b9050806001600160a01b0316846001600160a01b031614806118df5750836001600160a01b03166118d484610806565b6001600160a01b0316145b8061190f57506001600160a01b0380821660009081526005602090815260408083209388168352929052205460ff165b949350505050565b826001600160a01b031661192a82610e8a565b6001600160a01b0316146119a65760405162461bcd60e51b815260206004820152602960248201527f4552433732313a207472616e73666572206f6620746f6b656e2074686174206960448201527f73206e6f74206f776e00000000000000000000000000000000000000000000006064820152608401610758565b6001600160a01b038216611a215760405162461bcd60e51b8152602060048201526024808201527f4552433732313a207472616e7366657220746f20746865207a65726f2061646460448201527f72657373000000000000000000000000000000000000000000000000000000006064820152608401610758565b611a2c838383611d46565b611a37600082611789565b6001600160a01b0383166000908152600360205260408120805460019290611a6090849061299f565b90915550506001600160a01b0382166000908152600360205260408120805460019290611a8e9084906128aa565b909155505060008181526002602052604080822080547fffffffffffffffffffffffff0000000000000000000000000000000000000000166001600160a01b0386811691821790925591518493918716917fddf252ad1be2c89b69c2b068fc378daa952ba7f163c4a11628f55a4df523b3ef91a4505050565b610e86828260405180602001604052806000815250611dfe565b600a80546001600160a01b038381167fffffffffffffffffffffffff0000000000000000000000000000000000000000831681179093556040519116919082907f8be0079c531659141344cd1fd0a4f28419497f9722a3daafe3b4186f6b6457e090600090a35050565b611b96848484611917565b611ba284848484611e87565b6113d85760405162461bcd60e51b815260206004820152603260248201527f4552433732313a207472616e7366657220746f206e6f6e20455243373231526560448201527f63656976657220696d706c656d656e74657200000000000000000000000000006064820152608401610758565b606081611c5457505060408051808201909152600181527f3000000000000000000000000000000000000000000000000000000000000000602082015290565b8160005b8115611c7e5780611c6881612871565b9150611c779050600a836129e5565b9150611c58565b60008167ffffffffffffffff811115611c9957611c996125da565b6040519080825280601f01601f191660200182016040528015611cc3576020820181803683370190505b5090505b841561190f57611cd860018361299f565b9150611ce5600a866129f9565b611cf09060306128aa565b60f81b818381518110611d0557611d05612813565b60200101907effffffffffffffffffffffffffffffffffffffffffffffffffffffffffffff1916908160001a905350611d3f600a866129e5565b9450611cc7565b6001600160a01b038316611da157611d9c81600880546000838152600960205260408120829055600182018355919091527ff3f7a9fe364faab93b216da50a3214154f22a0a2b415b23a84c8169e8b636ee30155565b611dc4565b816001600160a01b0316836001600160a01b031614611dc457611dc48382612052565b6001600160a01b038216611ddb576109d9816120ef565b826001600160a01b0316826001600160a01b0316146109d9576109d9828261219e565b611e0883836121e2565b611e156000848484611e87565b6109d95760405162461bcd60e51b815260206004820152603260248201527f4552433732313a207472616e7366657220746f206e6f6e20455243373231526560448201527f63656976657220696d706c656d656e74657200000000000000000000000000006064820152608401610758565b60006001600160a01b0384163b15612047576040517f150b7a020000000000000000000000000000000000000000000000000000000081526001600160a01b0385169063150b7a0290611ee4903390899088908890600401612a0d565b602060405180830381600087803b158015611efe57600080fd5b505af1925050508015611f4c575060408051601f3d9081017fffffffffffffffffffffffffffffffffffffffffffffffffffffffffffffffe0168201909252611f4991810190612a49565b60015b611ffc573d808015611f7a576040519150601f19603f3d011682016040523d82523d6000602084013e611f7f565b606091505b508051611ff45760405162461bcd60e51b815260206004820152603260248201527f4552433732313a207472616e7366657220746f206e6f6e20455243373231526560448201527f63656976657220696d706c656d656e74657200000000000000000000000000006064820152608401610758565b805181602001fd5b7fffffffff00000000000000000000000000000000000000000000000000000000167f150b7a020000000000000000000000000000000000000000000000000000000014905061190f565b506001949350505050565b6000600161205f846110a6565b612069919061299f565b6000838152600760205260409020549091508082146120bc576001600160a01b03841660009081526006602090815260408083208584528252808320548484528184208190558352600790915290208190555b5060009182526007602090815260408084208490556001600160a01b039094168352600681528383209183525290812055565b6008546000906121019060019061299f565b6000838152600960205260408120546008805493945090928490811061212957612129612813565b90600052602060002001549050806008838154811061214a5761214a612813565b600091825260208083209091019290925582815260099091526040808220849055858252812055600880548061218257612182612a66565b6001900381819060005260206000200160009055905550505050565b60006121a9836110a6565b6001600160a01b039093166000908152600660209081526040808320868452825280832085905593825260079052919091209190915550565b6001600160a01b0382166122385760405162461bcd60e51b815260206004820181905260248201527f4552433732313a206d696e7420746f20746865207a65726f20616464726573736044820152606401610758565b6000818152600260205260409020546001600160a01b03161561229d5760405162461bcd60e51b815260206004820152601c60248201527f4552433732313a20746f6b656e20616c7265616479206d696e746564000000006044820152606401610758565b6122a960008383611d46565b6001600160a01b03821660009081526003602052604081208054600192906122d29084906128aa565b909155505060008181526002602052604080822080547fffffffffffffffffffffffff0000000000000000000000000000000000000000166001600160a01b03861690811790915590518392907fddf252ad1be2c89b69c2b068fc378daa952ba7f163c4a11628f55a4df523b3ef908290a45050565b828054612354906127bf565b90600052602060002090601f01602090048101928261237657600085556123bc565b82601f1061238f57805160ff19168380011785556123bc565b828001600101855582156123bc579182015b828111156123bc5782518255916020019190600101906123a1565b506123c89291506123cc565b5090565b5b808211156123c857600081556001016123cd565b7fffffffff0000000000000000000000000000000000000000000000000000000081168114610bd857600080fd5b60006020828403121561242157600080fd5b8135611553816123e1565b8035801515811461243c57600080fd5b919050565b60006020828403121561245357600080fd5b6115538261242c565b60005b8381101561247757818101518382015260200161245f565b838111156113d85750506000910152565b600081518084526124a081602086016020860161245c565b601f017fffffffffffffffffffffffffffffffffffffffffffffffffffffffffffffffe0169290920160200192915050565b6020815260006115536020830184612488565b6000602082840312156124f757600080fd5b5035919050565b80356001600160a01b038116811461243c57600080fd5b6000806040838503121561252857600080fd5b612531836124fe565b946020939093013593505050565b60008060006060848603121561255457600080fd5b61255d846124fe565b925061256b602085016124fe565b9150604084013590509250925092565b60006020828403121561258d57600080fd5b611553826124fe565b6020808252825182820181905260009190848201906040850190845b818110156125ce578351835292840192918401916001016125b2565b50909695505050505050565b7f4e487b7100000000000000000000000000000000000000000000000000000000600052604160045260246000fd5b600067ffffffffffffffff80841115612624576126246125da565b604051601f85017fffffffffffffffffffffffffffffffffffffffffffffffffffffffffffffffe0908116603f0116810190828211818310171561266a5761266a6125da565b8160405280935085815286868601111561268357600080fd5b858560208301376000602087830101525050509392505050565b6000602082840312156126af57600080fd5b813567ffffffffffffffff8111156126c657600080fd5b8201601f810184136126d757600080fd5b61190f84823560208401612609565b600080604083850312156126f957600080fd5b612702836124fe565b91506127106020840161242c565b90509250929050565b6000806000806080858703121561272f57600080fd5b612738856124fe565b9350612746602086016124fe565b925060408501359150606085013567ffffffffffffffff81111561276957600080fd5b8501601f8101871361277a57600080fd5b61278987823560208401612609565b91505092959194509250565b600080604083850312156127a857600080fd5b6127b1836124fe565b9150612710602084016124fe565b600181811c908216806127d357607f821691505b6020821081141561280d577f4e487b7100000000000000000000000000000000000000000000000000000000600052602260045260246000fd5b50919050565b7f4e487b7100000000000000000000000000000000000000000000000000000000600052603260045260246000fd5b7f4e487b7100000000000000000000000000000000000000000000000000000000600052601160045260246000fd5b60007fffffffffffffffffffffffffffffffffffffffffffffffffffffffffffffffff8214156128a3576128a3612842565b5060010190565b600082198211156128bd576128bd612842565b500190565b6000845160206128d58285838a0161245c565b8551918401916128e88184848a0161245c565b8554920191600090600181811c908083168061290557607f831692505b85831081141561293c577f4e487b710000000000000000000000000000000000000000000000000000000085526022600452602485fd5b80801561295057600181146129615761298e565b60ff1985168852838801955061298e565b60008b81526020902060005b858110156129865781548a82015290840190880161296d565b505083880195505b50939b9a5050505050505050505050565b6000828210156129b1576129b1612842565b500390565b7f4e487b7100000000000000000000000000000000000000000000000000000000600052601260045260246000fd5b6000826129f4576129f46129b6565b500490565b600082612a0857612a086129b6565b500690565b60006001600160a01b03808716835280861660208401525083604083015260806060830152612a3f6080830184612488565b9695505050505050565b600060208284031215612a5b57600080fd5b8151611553816123e1565b7f4e487b7100000000000000000000000000000000000000000000000000000000600052603160045260246000fdfea264697066735822122024d8d928e68b463cb3c4cb0fa27773abaffb30a4ca0b060fcb5eeccf0974b06264736f6c63430008090033",
  "immutableReferences": {},
  "source": "// SPDX-License-Identifier: MIT\n\npragma solidity ^0.8.9;\n\nimport \"@openzeppelin/contracts/token/ERC721/extensions/ERC721Enumerable.sol\";\nimport \"@openzeppelin/contracts/access/Ownable.sol\";\n\n\ncontract OrgvsmTest is ERC721Enumerable, Ownable {\n    using Strings for uint256;\n\n    string public baseURI;\n    string public baseExtension = \".json\";\n\n    uint256 public cost = 0.01 ether;\n    uint256 public maxSupply = 100;\n    bool public paused = false;\n\n    mapping(address => bool) public whitelisted;\n\n    constructor(\n        string memory _name,\n        string memory _symbol,\n        string memory _initBaseURI\n    ) ERC721(_name, _symbol) {\n        setBaseURI(_initBaseURI);\n    }\n\n    //internal functions\n    function _baseURI() internal view virtual override returns (string memory) {\n        return baseURI;\n    }\n\n\n    //public\n    function mint(address _to) public payable {\n        uint supply = totalSupply();\n        require(!paused);\n        require(supply + 1 <= maxSupply);\n\n        // commented for testing\n        // require(whitelisted[msg.sender] != true, \"Address is not Whitelisted\");\n        // require(balanceOf(msg.sender) < 1, 'Each address may only own one pass');\n        if (msg.sender != owner()){\n            if (whitelisted[msg.sender] != true) {\n                require(msg.value >= cost);\n            }\n        }\n        _safeMint(_to, supply + 1);\n    }\n\n\n    function walletOfOwner(address _owner) public view returns (uint256[] memory){\n        uint256 ownerTokenCount = balanceOf(_owner);\n        uint256[] memory tokenIds = new uint256[](ownerTokenCount);\n        for (uint256 i; i < ownerTokenCount; i++) {\n            tokenIds[i] = tokenOfOwnerByIndex(_owner, i);\n        }\n        return tokenIds;\n    }\n\n    function tokenURI(uint256 tokenId) public view virtual override returns (string memory){\n        require(_exists(tokenId), \"ERC721Metadata: URI query for nonexistent token\");\n        string memory currentBaseURI = baseURI;\n        return bytes(currentBaseURI).length > 0\n            ? string(abi.encodePacked(currentBaseURI, tokenId.toString(), baseExtension))\n            : \"\";\n    }\n\n    //owner functions\n    function setCost(uint256 _newCost) public onlyOwner {\n        cost = _newCost;\n    }\n\n    function setBaseURI(string memory _newBaseURI) public onlyOwner {\n        baseURI = _newBaseURI;\n    }\n\n    function setBaseExtension(string memory _newBaseExtension) public onlyOwner {\n        baseExtension = _newBaseExtension;\n    }\n\n    function pause(bool _state) public onlyOwner {\n        paused = _state;\n    }\n\n    function increaseMaxSupply(uint256 _newMaxSupply) public onlyOwner {\n        require(_newMaxSupply > maxSupply, \"Can not set a new maxSupply lower than the previous supply\");\n        maxSupply = _newMaxSupply;\n    }\n\n\n    function whitelistUser(address _user) public onlyOwner {\n        whitelisted[_user] = true;\n    }\n\n    function removeWhiteListedUser(address _user) public onlyOwner {\n        whitelisted[_user] = false;\n    }\n\n    function withdraw() public payable onlyOwner {\n        (bool os, ) = payable(owner()).call{value: address(this).balance}(\"\");\n        require(os);\n    }\n\n}",
  "sourcePath": "/Users/manueles95/Desktop/NFT/ContractMachine/contracts/OrgvsmTest.sol",
  "compiler": {
    "name": "solc",
    "version": "0.8.9+commit.e5eed63a.Emscripten.clang"
  },
  "schemaVersion": "3.4.3",
  "updatedAt": "2022-02-28T06:00:56.173Z",
  "networkType": "ethereum",
  "devdoc": {
    "kind": "dev",
    "methods": {
      "approve(address,uint256)": {
        "details": "See {IERC721-approve}."
      },
      "balanceOf(address)": {
        "details": "See {IERC721-balanceOf}."
      },
      "getApproved(uint256)": {
        "details": "See {IERC721-getApproved}."
      },
      "isApprovedForAll(address,address)": {
        "details": "See {IERC721-isApprovedForAll}."
      },
      "name()": {
        "details": "See {IERC721Metadata-name}."
      },
      "owner()": {
        "details": "Returns the address of the current owner."
      },
      "ownerOf(uint256)": {
        "details": "See {IERC721-ownerOf}."
      },
      "renounceOwnership()": {
        "details": "Leaves the contract without owner. It will not be possible to call `onlyOwner` functions anymore. Can only be called by the current owner. NOTE: Renouncing ownership will leave the contract without an owner, thereby removing any functionality that is only available to the owner."
      },
      "safeTransferFrom(address,address,uint256)": {
        "details": "See {IERC721-safeTransferFrom}."
      },
      "safeTransferFrom(address,address,uint256,bytes)": {
        "details": "See {IERC721-safeTransferFrom}."
      },
      "setApprovalForAll(address,bool)": {
        "details": "See {IERC721-setApprovalForAll}."
      },
      "supportsInterface(bytes4)": {
        "details": "See {IERC165-supportsInterface}."
      },
      "symbol()": {
        "details": "See {IERC721Metadata-symbol}."
      },
      "tokenByIndex(uint256)": {
        "details": "See {IERC721Enumerable-tokenByIndex}."
      },
      "tokenOfOwnerByIndex(address,uint256)": {
        "details": "See {IERC721Enumerable-tokenOfOwnerByIndex}."
      },
      "tokenURI(uint256)": {
        "details": "See {IERC721Metadata-tokenURI}."
      },
      "totalSupply()": {
        "details": "See {IERC721Enumerable-totalSupply}."
      },
      "transferFrom(address,address,uint256)": {
        "details": "See {IERC721-transferFrom}."
      },
      "transferOwnership(address)": {
        "details": "Transfers ownership of the contract to a new account (`newOwner`). Can only be called by the current owner."
      }
    },
    "version": 1
  },
  "userdoc": {
    "kind": "user",
    "methods": {},
    "version": 1
  }
}