{
  "contractName": "OrvgsmMerkle",
  "abi": [
    {
      "inputs": [
        {
          "internalType": "string",
          "name": "_name",
          "type": "string"
        },
        {
          "internalType": "string",
          "name": "_symbol",
          "type": "string"
        },
        {
          "internalType": "string",
          "name": "_initBaseURI",
          "type": "string"
        }
      ],
      "stateMutability": "nonpayable",
      "type": "constructor"
    },
    {
      "anonymous": false,
      "inputs": [
        {
          "indexed": true,
          "internalType": "address",
          "name": "owner",
          "type": "address"
        },
        {
          "indexed": true,
          "internalType": "address",
          "name": "approved",
          "type": "address"
        },
        {
          "indexed": true,
          "internalType": "uint256",
          "name": "tokenId",
          "type": "uint256"
        }
      ],
      "name": "Approval",
      "type": "event"
    },
    {
      "anonymous": false,
      "inputs": [
        {
          "indexed": true,
          "internalType": "address",
          "name": "owner",
          "type": "address"
        },
        {
          "indexed": true,
          "internalType": "address",
          "name": "operator",
          "type": "address"
        },
        {
          "indexed": false,
          "internalType": "bool",
          "name": "approved",
          "type": "bool"
        }
      ],
      "name": "ApprovalForAll",
      "type": "event"
    },
    {
      "anonymous": false,
      "inputs": [
        {
          "indexed": true,
          "internalType": "address",
          "name": "_address",
          "type": "address"
        }
      ],
      "name": "MerkleUsed",
      "type": "event"
    },
    {
      "anonymous": false,
      "inputs": [
        {
          "indexed": true,
          "internalType": "address",
          "name": "previousOwner",
          "type": "address"
        },
        {
          "indexed": true,
          "internalType": "address",
          "name": "newOwner",
          "type": "address"
        }
      ],
      "name": "OwnershipTransferred",
      "type": "event"
    },
    {
      "anonymous": false,
      "inputs": [
        {
          "indexed": true,
          "internalType": "address",
          "name": "from",
          "type": "address"
        },
        {
          "indexed": true,
          "internalType": "address",
          "name": "to",
          "type": "address"
        },
        {
          "indexed": true,
          "internalType": "uint256",
          "name": "tokenId",
          "type": "uint256"
        }
      ],
      "name": "Transfer",
      "type": "event"
    },
    {
      "inputs": [
        {
          "internalType": "address",
          "name": "to",
          "type": "address"
        },
        {
          "internalType": "uint256",
          "name": "tokenId",
          "type": "uint256"
        }
      ],
      "name": "approve",
      "outputs": [],
      "stateMutability": "nonpayable",
      "type": "function"
    },
    {
      "inputs": [
        {
          "internalType": "address",
          "name": "owner",
          "type": "address"
        }
      ],
      "name": "balanceOf",
      "outputs": [
        {
          "internalType": "uint256",
          "name": "",
          "type": "uint256"
        }
      ],
      "stateMutability": "view",
      "type": "function",
      "constant": true
    },
    {
      "inputs": [],
      "name": "baseExtension",
      "outputs": [
        {
          "internalType": "string",
          "name": "",
          "type": "string"
        }
      ],
      "stateMutability": "view",
      "type": "function",
      "constant": true
    },
    {
      "inputs": [],
      "name": "baseURI",
      "outputs": [
        {
          "internalType": "string",
          "name": "",
          "type": "string"
        }
      ],
      "stateMutability": "view",
      "type": "function",
      "constant": true
    },
    {
      "inputs": [],
      "name": "cost",
      "outputs": [
        {
          "internalType": "uint256",
          "name": "",
          "type": "uint256"
        }
      ],
      "stateMutability": "view",
      "type": "function",
      "constant": true
    },
    {
      "inputs": [
        {
          "internalType": "uint256",
          "name": "tokenId",
          "type": "uint256"
        }
      ],
      "name": "getApproved",
      "outputs": [
        {
          "internalType": "address",
          "name": "",
          "type": "address"
        }
      ],
      "stateMutability": "view",
      "type": "function",
      "constant": true
    },
    {
      "inputs": [
        {
          "internalType": "address",
          "name": "owner",
          "type": "address"
        },
        {
          "internalType": "address",
          "name": "operator",
          "type": "address"
        }
      ],
      "name": "isApprovedForAll",
      "outputs": [
        {
          "internalType": "bool",
          "name": "",
          "type": "bool"
        }
      ],
      "stateMutability": "view",
      "type": "function",
      "constant": true
    },
    {
      "inputs": [],
      "name": "maxMintAmount",
      "outputs": [
        {
          "internalType": "uint256",
          "name": "",
          "type": "uint256"
        }
      ],
      "stateMutability": "view",
      "type": "function",
      "constant": true
    },
    {
      "inputs": [],
      "name": "maxSupply",
      "outputs": [
        {
          "internalType": "uint256",
          "name": "",
          "type": "uint256"
        }
      ],
      "stateMutability": "view",
      "type": "function",
      "constant": true
    },
    {
      "inputs": [],
      "name": "name",
      "outputs": [
        {
          "internalType": "string",
          "name": "",
          "type": "string"
        }
      ],
      "stateMutability": "view",
      "type": "function",
      "constant": true
    },
    {
      "inputs": [],
      "name": "owner",
      "outputs": [
        {
          "internalType": "address",
          "name": "",
          "type": "address"
        }
      ],
      "stateMutability": "view",
      "type": "function",
      "constant": true
    },
    {
      "inputs": [
        {
          "internalType": "uint256",
          "name": "tokenId",
          "type": "uint256"
        }
      ],
      "name": "ownerOf",
      "outputs": [
        {
          "internalType": "address",
          "name": "",
          "type": "address"
        }
      ],
      "stateMutability": "view",
      "type": "function",
      "constant": true
    },
    {
      "inputs": [],
      "name": "paused",
      "outputs": [
        {
          "internalType": "bool",
          "name": "",
          "type": "bool"
        }
      ],
      "stateMutability": "view",
      "type": "function",
      "constant": true
    },
    {
      "inputs": [],
      "name": "renounceOwnership",
      "outputs": [],
      "stateMutability": "nonpayable",
      "type": "function"
    },
    {
      "inputs": [
        {
          "internalType": "address",
          "name": "from",
          "type": "address"
        },
        {
          "internalType": "address",
          "name": "to",
          "type": "address"
        },
        {
          "internalType": "uint256",
          "name": "tokenId",
          "type": "uint256"
        }
      ],
      "name": "safeTransferFrom",
      "outputs": [],
      "stateMutability": "nonpayable",
      "type": "function"
    },
    {
      "inputs": [
        {
          "internalType": "address",
          "name": "from",
          "type": "address"
        },
        {
          "internalType": "address",
          "name": "to",
          "type": "address"
        },
        {
          "internalType": "uint256",
          "name": "tokenId",
          "type": "uint256"
        },
        {
          "internalType": "bytes",
          "name": "_data",
          "type": "bytes"
        }
      ],
      "name": "safeTransferFrom",
      "outputs": [],
      "stateMutability": "nonpayable",
      "type": "function"
    },
    {
      "inputs": [
        {
          "internalType": "address",
          "name": "operator",
          "type": "address"
        },
        {
          "internalType": "bool",
          "name": "approved",
          "type": "bool"
        }
      ],
      "name": "setApprovalForAll",
      "outputs": [],
      "stateMutability": "nonpayable",
      "type": "function"
    },
    {
      "inputs": [
        {
          "internalType": "bytes4",
          "name": "interfaceId",
          "type": "bytes4"
        }
      ],
      "name": "supportsInterface",
      "outputs": [
        {
          "internalType": "bool",
          "name": "",
          "type": "bool"
        }
      ],
      "stateMutability": "view",
      "type": "function",
      "constant": true
    },
    {
      "inputs": [],
      "name": "symbol",
      "outputs": [
        {
          "internalType": "string",
          "name": "",
          "type": "string"
        }
      ],
      "stateMutability": "view",
      "type": "function",
      "constant": true
    },
    {
      "inputs": [
        {
          "internalType": "uint256",
          "name": "index",
          "type": "uint256"
        }
      ],
      "name": "tokenByIndex",
      "outputs": [
        {
          "internalType": "uint256",
          "name": "",
          "type": "uint256"
        }
      ],
      "stateMutability": "view",
      "type": "function",
      "constant": true
    },
    {
      "inputs": [
        {
          "internalType": "address",
          "name": "owner",
          "type": "address"
        },
        {
          "internalType": "uint256",
          "name": "index",
          "type": "uint256"
        }
      ],
      "name": "tokenOfOwnerByIndex",
      "outputs": [
        {
          "internalType": "uint256",
          "name": "",
          "type": "uint256"
        }
      ],
      "stateMutability": "view",
      "type": "function",
      "constant": true
    },
    {
      "inputs": [],
      "name": "totalSupply",
      "outputs": [
        {
          "internalType": "uint256",
          "name": "",
          "type": "uint256"
        }
      ],
      "stateMutability": "view",
      "type": "function",
      "constant": true
    },
    {
      "inputs": [
        {
          "internalType": "address",
          "name": "from",
          "type": "address"
        },
        {
          "internalType": "address",
          "name": "to",
          "type": "address"
        },
        {
          "internalType": "uint256",
          "name": "tokenId",
          "type": "uint256"
        }
      ],
      "name": "transferFrom",
      "outputs": [],
      "stateMutability": "nonpayable",
      "type": "function"
    },
    {
      "inputs": [
        {
          "internalType": "address",
          "name": "newOwner",
          "type": "address"
        }
      ],
      "name": "transferOwnership",
      "outputs": [],
      "stateMutability": "nonpayable",
      "type": "function"
    },
    {
      "inputs": [
        {
          "internalType": "address",
          "name": "_owner",
          "type": "address"
        }
      ],
      "name": "walletOfOwner",
      "outputs": [
        {
          "internalType": "uint256[]",
          "name": "",
          "type": "uint256[]"
        }
      ],
      "stateMutability": "view",
      "type": "function",
      "constant": true
    },
    {
      "inputs": [
        {
          "internalType": "uint256",
          "name": "tokenId",
          "type": "uint256"
        }
      ],
      "name": "tokenURI",
      "outputs": [
        {
          "internalType": "string",
          "name": "",
          "type": "string"
        }
      ],
      "stateMutability": "view",
      "type": "function",
      "constant": true
    },
    {
      "inputs": [
        {
          "internalType": "uint256",
          "name": "_newCost",
          "type": "uint256"
        }
      ],
      "name": "setCost",
      "outputs": [],
      "stateMutability": "nonpayable",
      "type": "function"
    },
    {
      "inputs": [
        {
          "internalType": "string",
          "name": "_newBaseURI",
          "type": "string"
        }
      ],
      "name": "setBaseURI",
      "outputs": [],
      "stateMutability": "nonpayable",
      "type": "function"
    },
    {
      "inputs": [
        {
          "internalType": "string",
          "name": "_newBaseExtension",
          "type": "string"
        }
      ],
      "name": "setBaseExtension",
      "outputs": [],
      "stateMutability": "nonpayable",
      "type": "function"
    },
    {
      "inputs": [
        {
          "internalType": "bool",
          "name": "_state",
          "type": "bool"
        }
      ],
      "name": "pause",
      "outputs": [],
      "stateMutability": "nonpayable",
      "type": "function"
    },
    {
      "inputs": [
        {
          "internalType": "uint256",
          "name": "_newMaxSupply",
          "type": "uint256"
        }
      ],
      "name": "increaseMaxSupply",
      "outputs": [],
      "stateMutability": "nonpayable",
      "type": "function"
    },
    {
      "inputs": [
        {
          "internalType": "uint256",
          "name": "_newMaxMintAmount",
          "type": "uint256"
        }
      ],
      "name": "setMaxMintAmount",
      "outputs": [],
      "stateMutability": "nonpayable",
      "type": "function"
    },
    {
      "inputs": [],
      "name": "withdraw",
      "outputs": [],
      "stateMutability": "payable",
      "type": "function",
      "payable": true
    },
    {
      "inputs": [
        {
          "internalType": "uint256",
          "name": "_mintAmount",
          "type": "uint256"
        },
        {
          "internalType": "bytes32[]",
          "name": "proof",
          "type": "bytes32[]"
        }
      ],
      "name": "mint",
      "outputs": [],
      "stateMutability": "payable",
      "type": "function",
      "payable": true
    },
    {
      "inputs": [
        {
          "internalType": "bytes32",
          "name": "root",
          "type": "bytes32"
        }
      ],
      "name": "setMerkleRoot",
      "outputs": [],
      "stateMutability": "nonpayable",
      "type": "function"
    }
  ],
  "bytecode": "0x60c06040526005608081905264173539b7b760d91b60a09081526200002891600c9190620001a7565b5066b1a2bc2ec50000600d556103e8600e55600f805460ff1916905560026010553480156200005657600080fd5b506040516200320a3803806200320a83398101604081905262000079916200031a565b82518390839062000092906000906020850190620001a7565b508051620000a8906001906020840190620001a7565b505050620000c5620000bf620000d960201b60201c565b620000dd565b620000d0816200012f565b505050620003e8565b3390565b600a80546001600160a01b038381166001600160a01b0319831681179093556040519116919082907f8be0079c531659141344cd1fd0a4f28419497f9722a3daafe3b4186f6b6457e090600090a35050565b600a546001600160a01b031633146200018e5760405162461bcd60e51b815260206004820181905260248201527f4f776e61626c653a2063616c6c6572206973206e6f7420746865206f776e6572604482015260640160405180910390fd5b8051620001a390600b906020840190620001a7565b5050565b828054620001b590620003ab565b90600052602060002090601f016020900481019282620001d9576000855562000224565b82601f10620001f457805160ff191683800117855562000224565b8280016001018555821562000224579182015b828111156200022457825182559160200191906001019062000207565b506200023292915062000236565b5090565b5b8082111562000232576000815560010162000237565b634e487b7160e01b600052604160045260246000fd5b600082601f8301126200027557600080fd5b81516001600160401b03808211156200029257620002926200024d565b604051601f8301601f19908116603f01168101908282118183101715620002bd57620002bd6200024d565b81604052838152602092508683858801011115620002da57600080fd5b600091505b83821015620002fe5785820183015181830184015290820190620002df565b83821115620003105760008385830101525b9695505050505050565b6000806000606084860312156200033057600080fd5b83516001600160401b03808211156200034857600080fd5b620003568783880162000263565b945060208601519150808211156200036d57600080fd5b6200037b8783880162000263565b935060408601519150808211156200039257600080fd5b50620003a18682870162000263565b9150509250925092565b600181811c90821680620003c057607f821691505b60208210811415620003e257634e487b7160e01b600052602260045260246000fd5b50919050565b612e1280620003f86000396000f3fe6080604052600436106102345760003560e01c80635c975abb11610138578063a22cb465116100b0578063c87b56dd1161007f578063da3ef23f11610064578063da3ef23f14610603578063e985e9c514610623578063f2fde38b1461066c57600080fd5b8063c87b56dd146105cd578063d5abeb01146105ed57600080fd5b8063a22cb46514610565578063b88d4fde14610585578063ba41b0c6146105a5578063c6682862146105b857600080fd5b8063715018a6116101075780638da5cb5b116100ec5780638da5cb5b1461051257806390edbfee1461053057806395d89b411461055057600080fd5b8063715018a6146104dd5780637cb64759146104f257600080fd5b80635c975abb1461046e5780636352211e146104885780636c0360eb146104a857806370a08231146104bd57600080fd5b8063239c70ae116101cb57806342842e0e1161019a57806344a0d68a1161017f57806344a0d68a1461040e5780634f6ccce71461042e57806355f804b31461044e57600080fd5b806342842e0e146103c1578063438b6300146103e157600080fd5b8063239c70ae1461036357806323b872dd146103795780632f745c59146103995780633ccfd60b146103b957600080fd5b8063088a4ed011610207578063088a4ed0146102ea578063095ea7b31461030a57806313faede61461032a57806318160ddd1461034e57600080fd5b806301ffc9a71461023957806302329a291461026e57806306fdde0314610290578063081812fc146102b2575b600080fd5b34801561024557600080fd5b506102596102543660046126b9565b61068c565b60405190151581526020015b60405180910390f35b34801561027a57600080fd5b5061028e6102893660046126eb565b6106e8565b005b34801561029c57600080fd5b506102a5610778565b604051610265919061277c565b3480156102be57600080fd5b506102d26102cd36600461278f565b61080a565b6040516001600160a01b039091168152602001610265565b3480156102f657600080fd5b5061028e61030536600461278f565b6108b0565b34801561031657600080fd5b5061028e6103253660046127bf565b61090f565b34801561033657600080fd5b50610340600d5481565b604051908152602001610265565b34801561035a57600080fd5b50600854610340565b34801561036f57600080fd5b5061034060105481565b34801561038557600080fd5b5061028e6103943660046127e9565b610a41565b3480156103a557600080fd5b506103406103b43660046127bf565b610ac8565b61028e610b70565b3480156103cd57600080fd5b5061028e6103dc3660046127e9565b610c3e565b3480156103ed57600080fd5b506104016103fc366004612825565b610c59565b6040516102659190612840565b34801561041a57600080fd5b5061028e61042936600461278f565b610cfb565b34801561043a57600080fd5b5061034061044936600461278f565b610d5a565b34801561045a57600080fd5b5061028e610469366004612947565b610dfe565b34801561047a57600080fd5b50600f546102599060ff1681565b34801561049457600080fd5b506102d26104a336600461278f565b610e6f565b3480156104b457600080fd5b506102a5610efa565b3480156104c957600080fd5b506103406104d8366004612825565b610f88565b3480156104e957600080fd5b5061028e611022565b3480156104fe57600080fd5b5061028e61050d36600461278f565b611088565b34801561051e57600080fd5b50600a546001600160a01b03166102d2565b34801561053c57600080fd5b5061028e61054b36600461278f565b6110e7565b34801561055c57600080fd5b506102a56111bd565b34801561057157600080fd5b5061028e610580366004612990565b6111cc565b34801561059157600080fd5b5061028e6105a03660046129c3565b6112af565b61028e6105b3366004612a3f565b61133d565b3480156105c457600080fd5b506102a56115ca565b3480156105d957600080fd5b506102a56105e836600461278f565b6115d7565b3480156105f957600080fd5b50610340600e5481565b34801561060f57600080fd5b5061028e61061e366004612947565b611746565b34801561062f57600080fd5b5061025961063e366004612abe565b6001600160a01b03918216600090815260056020908152604080832093909416825291909152205460ff1690565b34801561067857600080fd5b5061028e610687366004612825565b6117b3565b60007fffffffff0000000000000000000000000000000000000000000000000000000082167f780e9d630000000000000000000000000000000000000000000000000000000014806106e257506106e282611892565b92915050565b600a546001600160a01b031633146107475760405162461bcd60e51b815260206004820181905260248201527f4f776e61626c653a2063616c6c6572206973206e6f7420746865206f776e657260448201526064015b60405180910390fd5b600f80547fffffffffffffffffffffffffffffffffffffffffffffffffffffffffffffff0016911515919091179055565b60606000805461078790612ae8565b80601f01602080910402602001604051908101604052809291908181526020018280546107b390612ae8565b80156108005780601f106107d557610100808354040283529160200191610800565b820191906000526020600020905b8154815290600101906020018083116107e357829003601f168201915b5050505050905090565b6000818152600260205260408120546001600160a01b03166108945760405162461bcd60e51b815260206004820152602c60248201527f4552433732313a20617070726f76656420717565727920666f72206e6f6e657860448201527f697374656e7420746f6b656e0000000000000000000000000000000000000000606482015260840161073e565b506000908152600460205260409020546001600160a01b031690565b600a546001600160a01b0316331461090a5760405162461bcd60e51b815260206004820181905260248201527f4f776e61626c653a2063616c6c6572206973206e6f7420746865206f776e6572604482015260640161073e565b601055565b600061091a82610e6f565b9050806001600160a01b0316836001600160a01b031614156109a45760405162461bcd60e51b815260206004820152602160248201527f4552433732313a20617070726f76616c20746f2063757272656e74206f776e6560448201527f7200000000000000000000000000000000000000000000000000000000000000606482015260840161073e565b336001600160a01b03821614806109c057506109c0813361063e565b610a325760405162461bcd60e51b815260206004820152603860248201527f4552433732313a20617070726f76652063616c6c6572206973206e6f74206f7760448201527f6e6572206e6f7220617070726f76656420666f7220616c6c0000000000000000606482015260840161073e565b610a3c8383611975565b505050565b610a4b33826119fb565b610abd5760405162461bcd60e51b815260206004820152603160248201527f4552433732313a207472616e736665722063616c6c6572206973206e6f74206f60448201527f776e6572206e6f7220617070726f766564000000000000000000000000000000606482015260840161073e565b610a3c838383611b03565b6000610ad383610f88565b8210610b475760405162461bcd60e51b815260206004820152602b60248201527f455243373231456e756d657261626c653a206f776e657220696e646578206f7560448201527f74206f6620626f756e6473000000000000000000000000000000000000000000606482015260840161073e565b506001600160a01b03919091166000908152600660209081526040808320938352929052205490565b600a546001600160a01b03163314610bca5760405162461bcd60e51b815260206004820181905260248201527f4f776e61626c653a2063616c6c6572206973206e6f7420746865206f776e6572604482015260640161073e565b6000610bde600a546001600160a01b031690565b6001600160a01b03164760405160006040518083038185875af1925050503d8060008114610c28576040519150601f19603f3d011682016040523d82523d6000602084013e610c2d565b606091505b5050905080610c3b57600080fd5b50565b610a3c838383604051806020016040528060008152506112af565b60606000610c6683610f88565b905060008167ffffffffffffffff811115610c8357610c83612884565b604051908082528060200260200182016040528015610cac578160200160208202803683370190505b50905060005b82811015610cf357610cc48582610ac8565b828281518110610cd657610cd6612b3c565b602090810291909101015280610ceb81612b9a565b915050610cb2565b509392505050565b600a546001600160a01b03163314610d555760405162461bcd60e51b815260206004820181905260248201527f4f776e61626c653a2063616c6c6572206973206e6f7420746865206f776e6572604482015260640161073e565b600d55565b6000610d6560085490565b8210610dd95760405162461bcd60e51b815260206004820152602c60248201527f455243373231456e756d657261626c653a20676c6f62616c20696e646578206f60448201527f7574206f6620626f756e64730000000000000000000000000000000000000000606482015260840161073e565b60088281548110610dec57610dec612b3c565b90600052602060002001549050919050565b600a546001600160a01b03163314610e585760405162461bcd60e51b815260206004820181905260248201527f4f776e61626c653a2063616c6c6572206973206e6f7420746865206f776e6572604482015260640161073e565b8051610e6b90600b9060208401906125f2565b5050565b6000818152600260205260408120546001600160a01b0316806106e25760405162461bcd60e51b815260206004820152602960248201527f4552433732313a206f776e657220717565727920666f72206e6f6e657869737460448201527f656e7420746f6b656e0000000000000000000000000000000000000000000000606482015260840161073e565b600b8054610f0790612ae8565b80601f0160208091040260200160405190810160405280929190818152602001828054610f3390612ae8565b8015610f805780601f10610f5557610100808354040283529160200191610f80565b820191906000526020600020905b815481529060010190602001808311610f6357829003601f168201915b505050505081565b60006001600160a01b0382166110065760405162461bcd60e51b815260206004820152602a60248201527f4552433732313a2062616c616e636520717565727920666f7220746865207a6560448201527f726f206164647265737300000000000000000000000000000000000000000000606482015260840161073e565b506001600160a01b031660009081526003602052604090205490565b600a546001600160a01b0316331461107c5760405162461bcd60e51b815260206004820181905260248201527f4f776e61626c653a2063616c6c6572206973206e6f7420746865206f776e6572604482015260640161073e565b6110866000611cf3565b565b600a546001600160a01b031633146110e25760405162461bcd60e51b815260206004820181905260248201527f4f776e61626c653a2063616c6c6572206973206e6f7420746865206f776e6572604482015260640161073e565b601155565b600a546001600160a01b031633146111415760405162461bcd60e51b815260206004820181905260248201527f4f776e61626c653a2063616c6c6572206973206e6f7420746865206f776e6572604482015260640161073e565b600e5481116111b85760405162461bcd60e51b815260206004820152603a60248201527f43616e206e6f74207365742061206e6577206d6178537570706c79206c6f776560448201527f72207468616e207468652070726576696f757320737570706c79000000000000606482015260840161073e565b600e55565b60606001805461078790612ae8565b6001600160a01b0382163314156112255760405162461bcd60e51b815260206004820152601960248201527f4552433732313a20617070726f766520746f2063616c6c657200000000000000604482015260640161073e565b3360008181526005602090815260408083206001600160a01b0387168085529083529281902080547fffffffffffffffffffffffffffffffffffffffffffffffffffffffffffffff001686151590811790915590519081529192917f17307eab39ab6107e8899845ad3d59bd9653f200f220920489ca2b5937696c31910160405180910390a35050565b6112b933836119fb565b61132b5760405162461bcd60e51b815260206004820152603160248201527f4552433732313a207472616e736665722063616c6c6572206973206e6f74206f60448201527f776e6572206e6f7220617070726f766564000000000000000000000000000000606482015260840161073e565b61133784848484611d5d565b50505050565b604080513360601b7fffffffffffffffffffffffffffffffffffffffff0000000000000000000000001660208083019190915282516014818403018152603490920190925280519101206113c490838380806020026020016040519081016040528093929190818152602001838360200280828437600092019190915250611de692505050565b6114105760405162461bcd60e51b815260206004820152601d60248201527f596f7520617265206e6f74206f6e20746865207768697465206c697374000000604482015260640161073e565b600061141b60085490565b600f5490915060ff16156114975760405162461bcd60e51b815260206004820152602f60248201527f436f6e7472616374206973207061757365642c20636f6e74616374206f776e6560448201527f7220746f20756e70617573652069740000000000000000000000000000000000606482015260840161073e565b600e546114a48583612bd3565b11156115175760405162461bcd60e51b8152602060048201526024808201527f4d696e74656420616d6f756e7420776f756c6420657863656564206d6178537560448201527f70706c7900000000000000000000000000000000000000000000000000000000606482015260840161073e565b6010548411156115695760405162461bcd60e51b815260206004820152601360248201527f4d696e74206c696d697420657863656564656400000000000000000000000000604482015260640161073e565b60405133907ff4694acc02f60ab60d293c4f35e5ad2b05f4a019fc8ca3553b85628b215b173e90600090a260015b8481116115c3576115b1336115ac8385612bd3565b611df5565b806115bb81612b9a565b915050611597565b5050505050565b600c8054610f0790612ae8565b6000818152600260205260409020546060906001600160a01b03166116645760405162461bcd60e51b815260206004820152602f60248201527f4552433732314d657461646174613a2055524920717565727920666f72206e6f60448201527f6e6578697374656e7420746f6b656e0000000000000000000000000000000000606482015260840161073e565b6000600b805461167390612ae8565b80601f016020809104026020016040519081016040528092919081815260200182805461169f90612ae8565b80156116ec5780601f106116c1576101008083540402835291602001916116ec565b820191906000526020600020905b8154815290600101906020018083116116cf57829003601f168201915b505050505090506000815111611711576040518060200160405280600081525061173f565b8061171b84611e0f565b600c60405160200161172f93929190612beb565b6040516020818303038152906040525b9392505050565b600a546001600160a01b031633146117a05760405162461bcd60e51b815260206004820181905260248201527f4f776e61626c653a2063616c6c6572206973206e6f7420746865206f776e6572604482015260640161073e565b8051610e6b90600c9060208401906125f2565b600a546001600160a01b0316331461180d5760405162461bcd60e51b815260206004820181905260248201527f4f776e61626c653a2063616c6c6572206973206e6f7420746865206f776e6572604482015260640161073e565b6001600160a01b0381166118895760405162461bcd60e51b815260206004820152602660248201527f4f776e61626c653a206e6577206f776e657220697320746865207a65726f206160448201527f6464726573730000000000000000000000000000000000000000000000000000606482015260840161073e565b610c3b81611cf3565b60007fffffffff0000000000000000000000000000000000000000000000000000000082167f80ac58cd00000000000000000000000000000000000000000000000000000000148061192557507fffffffff0000000000000000000000000000000000000000000000000000000082167f5b5e139f00000000000000000000000000000000000000000000000000000000145b806106e257507f01ffc9a7000000000000000000000000000000000000000000000000000000007fffffffff000000000000000000000000000000000000000000000000000000008316146106e2565b600081815260046020526040902080547fffffffffffffffffffffffff0000000000000000000000000000000000000000166001600160a01b03841690811790915581906119c282610e6f565b6001600160a01b03167f8c5be1e5ebec7d5bd14f71427d1e84f3dd0314c0f7b2291e5b200ac8c7c3b92560405160405180910390a45050565b6000818152600260205260408120546001600160a01b0316611a855760405162461bcd60e51b815260206004820152602c60248201527f4552433732313a206f70657261746f7220717565727920666f72206e6f6e657860448201527f697374656e7420746f6b656e0000000000000000000000000000000000000000606482015260840161073e565b6000611a9083610e6f565b9050806001600160a01b0316846001600160a01b03161480611acb5750836001600160a01b0316611ac08461080a565b6001600160a01b0316145b80611afb57506001600160a01b0380821660009081526005602090815260408083209388168352929052205460ff165b949350505050565b826001600160a01b0316611b1682610e6f565b6001600160a01b031614611b925760405162461bcd60e51b815260206004820152602960248201527f4552433732313a207472616e73666572206f6620746f6b656e2074686174206960448201527f73206e6f74206f776e0000000000000000000000000000000000000000000000606482015260840161073e565b6001600160a01b038216611c0d5760405162461bcd60e51b8152602060048201526024808201527f4552433732313a207472616e7366657220746f20746865207a65726f2061646460448201527f7265737300000000000000000000000000000000000000000000000000000000606482015260840161073e565b611c18838383611f41565b611c23600082611975565b6001600160a01b0383166000908152600360205260408120805460019290611c4c908490612ce6565b90915550506001600160a01b0382166000908152600360205260408120805460019290611c7a908490612bd3565b909155505060008181526002602052604080822080547fffffffffffffffffffffffff0000000000000000000000000000000000000000166001600160a01b0386811691821790925591518493918716917fddf252ad1be2c89b69c2b068fc378daa952ba7f163c4a11628f55a4df523b3ef91a4505050565b600a80546001600160a01b038381167fffffffffffffffffffffffff0000000000000000000000000000000000000000831681179093556040519116919082907f8be0079c531659141344cd1fd0a4f28419497f9722a3daafe3b4186f6b6457e090600090a35050565b611d68848484611b03565b611d7484848484611ff9565b6113375760405162461bcd60e51b815260206004820152603260248201527f4552433732313a207472616e7366657220746f206e6f6e20455243373231526560448201527f63656976657220696d706c656d656e7465720000000000000000000000000000606482015260840161073e565b600061173f82601154856121c4565b610e6b828260405180602001604052806000815250612273565b606081611e4f57505060408051808201909152600181527f3000000000000000000000000000000000000000000000000000000000000000602082015290565b8160005b8115611e795780611e6381612b9a565b9150611e729050600a83612d2c565b9150611e53565b60008167ffffffffffffffff811115611e9457611e94612884565b6040519080825280601f01601f191660200182016040528015611ebe576020820181803683370190505b5090505b8415611afb57611ed3600183612ce6565b9150611ee0600a86612d40565b611eeb906030612bd3565b60f81b818381518110611f0057611f00612b3c565b60200101907effffffffffffffffffffffffffffffffffffffffffffffffffffffffffffff1916908160001a905350611f3a600a86612d2c565b9450611ec2565b6001600160a01b038316611f9c57611f9781600880546000838152600960205260408120829055600182018355919091527ff3f7a9fe364faab93b216da50a3214154f22a0a2b415b23a84c8169e8b636ee30155565b611fbf565b816001600160a01b0316836001600160a01b031614611fbf57611fbf83826122fc565b6001600160a01b038216611fd657610a3c81612399565b826001600160a01b0316826001600160a01b031614610a3c57610a3c8282612448565b60006001600160a01b0384163b156121b9576040517f150b7a020000000000000000000000000000000000000000000000000000000081526001600160a01b0385169063150b7a0290612056903390899088908890600401612d54565b602060405180830381600087803b15801561207057600080fd5b505af19250505080156120be575060408051601f3d9081017fffffffffffffffffffffffffffffffffffffffffffffffffffffffffffffffe01682019092526120bb91810190612d90565b60015b61216e573d8080156120ec576040519150601f19603f3d011682016040523d82523d6000602084013e6120f1565b606091505b5080516121665760405162461bcd60e51b815260206004820152603260248201527f4552433732313a207472616e7366657220746f206e6f6e20455243373231526560448201527f63656976657220696d706c656d656e7465720000000000000000000000000000606482015260840161073e565b805181602001fd5b7fffffffff00000000000000000000000000000000000000000000000000000000167f150b7a0200000000000000000000000000000000000000000000000000000000149050611afb565b506001949350505050565b600081815b85518110156122685760008682815181106121e6576121e6612b3c565b60200260200101519050808311612228576040805160208101859052908101829052606001604051602081830303815290604052805190602001209250612255565b60408051602081018390529081018490526060016040516020818303038152906040528051906020012092505b508061226081612b9a565b9150506121c9565b509092149392505050565b61227d838361248c565b61228a6000848484611ff9565b610a3c5760405162461bcd60e51b815260206004820152603260248201527f4552433732313a207472616e7366657220746f206e6f6e20455243373231526560448201527f63656976657220696d706c656d656e7465720000000000000000000000000000606482015260840161073e565b6000600161230984610f88565b6123139190612ce6565b600083815260076020526040902054909150808214612366576001600160a01b03841660009081526006602090815260408083208584528252808320548484528184208190558352600790915290208190555b5060009182526007602090815260408084208490556001600160a01b039094168352600681528383209183525290812055565b6008546000906123ab90600190612ce6565b600083815260096020526040812054600880549394509092849081106123d3576123d3612b3c565b9060005260206000200154905080600883815481106123f4576123f4612b3c565b600091825260208083209091019290925582815260099091526040808220849055858252812055600880548061242c5761242c612dad565b6001900381819060005260206000200160009055905550505050565b600061245383610f88565b6001600160a01b039093166000908152600660209081526040808320868452825280832085905593825260079052919091209190915550565b6001600160a01b0382166124e25760405162461bcd60e51b815260206004820181905260248201527f4552433732313a206d696e7420746f20746865207a65726f2061646472657373604482015260640161073e565b6000818152600260205260409020546001600160a01b0316156125475760405162461bcd60e51b815260206004820152601c60248201527f4552433732313a20746f6b656e20616c7265616479206d696e74656400000000604482015260640161073e565b61255360008383611f41565b6001600160a01b038216600090815260036020526040812080546001929061257c908490612bd3565b909155505060008181526002602052604080822080547fffffffffffffffffffffffff0000000000000000000000000000000000000000166001600160a01b03861690811790915590518392907fddf252ad1be2c89b69c2b068fc378daa952ba7f163c4a11628f55a4df523b3ef908290a45050565b8280546125fe90612ae8565b90600052602060002090601f0160209004810192826126205760008555612666565b82601f1061263957805160ff1916838001178555612666565b82800160010185558215612666579182015b8281111561266657825182559160200191906001019061264b565b50612672929150612676565b5090565b5b808211156126725760008155600101612677565b7fffffffff0000000000000000000000000000000000000000000000000000000081168114610c3b57600080fd5b6000602082840312156126cb57600080fd5b813561173f8161268b565b803580151581146126e657600080fd5b919050565b6000602082840312156126fd57600080fd5b61173f826126d6565b60005b83811015612721578181015183820152602001612709565b838111156113375750506000910152565b6000815180845261274a816020860160208601612706565b601f017fffffffffffffffffffffffffffffffffffffffffffffffffffffffffffffffe0169290920160200192915050565b60208152600061173f6020830184612732565b6000602082840312156127a157600080fd5b5035919050565b80356001600160a01b03811681146126e657600080fd5b600080604083850312156127d257600080fd5b6127db836127a8565b946020939093013593505050565b6000806000606084860312156127fe57600080fd5b612807846127a8565b9250612815602085016127a8565b9150604084013590509250925092565b60006020828403121561283757600080fd5b61173f826127a8565b6020808252825182820181905260009190848201906040850190845b818110156128785783518352928401929184019160010161285c565b50909695505050505050565b7f4e487b7100000000000000000000000000000000000000000000000000000000600052604160045260246000fd5b600067ffffffffffffffff808411156128ce576128ce612884565b604051601f85017fffffffffffffffffffffffffffffffffffffffffffffffffffffffffffffffe0908116603f0116810190828211818310171561291457612914612884565b8160405280935085815286868601111561292d57600080fd5b858560208301376000602087830101525050509392505050565b60006020828403121561295957600080fd5b813567ffffffffffffffff81111561297057600080fd5b8201601f8101841361298157600080fd5b611afb848235602084016128b3565b600080604083850312156129a357600080fd5b6129ac836127a8565b91506129ba602084016126d6565b90509250929050565b600080600080608085870312156129d957600080fd5b6129e2856127a8565b93506129f0602086016127a8565b925060408501359150606085013567ffffffffffffffff811115612a1357600080fd5b8501601f81018713612a2457600080fd5b612a33878235602084016128b3565b91505092959194509250565b600080600060408486031215612a5457600080fd5b83359250602084013567ffffffffffffffff80821115612a7357600080fd5b818601915086601f830112612a8757600080fd5b813581811115612a9657600080fd5b8760208260051b8501011115612aab57600080fd5b6020830194508093505050509250925092565b60008060408385031215612ad157600080fd5b612ada836127a8565b91506129ba602084016127a8565b600181811c90821680612afc57607f821691505b60208210811415612b36577f4e487b7100000000000000000000000000000000000000000000000000000000600052602260045260246000fd5b50919050565b7f4e487b7100000000000000000000000000000000000000000000000000000000600052603260045260246000fd5b7f4e487b7100000000000000000000000000000000000000000000000000000000600052601160045260246000fd5b60007fffffffffffffffffffffffffffffffffffffffffffffffffffffffffffffffff821415612bcc57612bcc612b6b565b5060010190565b60008219821115612be657612be6612b6b565b500190565b600084516020612bfe8285838a01612706565b855191840191612c118184848a01612706565b8554920191600090600181811c9080831680612c2e57607f831692505b858310811415612c65577f4e487b710000000000000000000000000000000000000000000000000000000085526022600452602485fd5b808015612c795760018114612ca857612cd5565b7fffffffffffffffffffffffffffffffffffffffffffffffffffffffffffffff00851688528388019550612cd5565b60008b81526020902060005b85811015612ccd5781548a820152908401908801612cb4565b505083880195505b50939b9a5050505050505050505050565b600082821015612cf857612cf8612b6b565b500390565b7f4e487b7100000000000000000000000000000000000000000000000000000000600052601260045260246000fd5b600082612d3b57612d3b612cfd565b500490565b600082612d4f57612d4f612cfd565b500690565b60006001600160a01b03808716835280861660208401525083604083015260806060830152612d866080830184612732565b9695505050505050565b600060208284031215612da257600080fd5b815161173f8161268b565b7f4e487b7100000000000000000000000000000000000000000000000000000000600052603160045260246000fdfea2646970667358221220a152ca5ed51b5fcbee6d825b0a163ac4459e44691cd394ec5fc1a10d495d7bb664736f6c63430008090033",
  "immutableReferences": {},
  "source": "// SPDX-License-Identifier: MIT\n\npragma solidity ^0.8.9;\n\nimport \"@openzeppelin/contracts/token/ERC721/extensions/ERC721Enumerable.sol\";\nimport \"@openzeppelin/contracts/access/Ownable.sol\";\nimport \"@openzeppelin/contracts/utils/cryptography/MerkleProof.sol\";\n\ncontract OrvgsmMerkle is ERC721Enumerable, Ownable {\n    using Strings for uint256;\n    using MerkleProof for bytes32[];\n\n    string public baseURI;\n    string public baseExtension = \".json\";\n\n    uint256 public cost = 0.05 ether;\n    uint256 public maxSupply = 1000;\n    bool public paused = false;\n    uint256 public maxMintAmount = 2;\n    bytes32 merkleRoot;\n    \n    event MerkleUsed(address indexed _address);\n\n    constructor(\n        string memory _name,\n        string memory _symbol,\n        string memory _initBaseURI\n    ) ERC721(_name, _symbol) {\n        setBaseURI(_initBaseURI);\n    }\n\n    //internal functions\n    function _baseURI() internal view virtual override returns (string memory) {\n        return baseURI;\n    }\n    \n\n    function walletOfOwner(address _owner) public view returns (uint256[] memory){\n        uint256 ownerTokenCount = balanceOf(_owner);\n        uint256[] memory tokenIds = new uint256[](ownerTokenCount);\n        for (uint256 i; i < ownerTokenCount; i++) {\n            tokenIds[i] = tokenOfOwnerByIndex(_owner, i);\n        }\n        return tokenIds;\n    }\n\n    function tokenURI(uint256 tokenId) public view virtual override returns (string memory){\n        require(_exists(tokenId), \"ERC721Metadata: URI query for nonexistent token\");\n        string memory currentBaseURI = baseURI;\n        return bytes(currentBaseURI).length > 0\n            ? string(abi.encodePacked(currentBaseURI, tokenId.toString(), baseExtension))\n            : \"\";\n    }\n\n    //owner functions\n    function setCost(uint256 _newCost) public onlyOwner {\n        cost = _newCost;\n    }\n\n    function setBaseURI(string memory _newBaseURI) public onlyOwner {\n        baseURI = _newBaseURI;\n    }\n\n    function setBaseExtension(string memory _newBaseExtension) public onlyOwner {\n        baseExtension = _newBaseExtension;\n    }\n\n    function pause(bool _state) public onlyOwner {\n        paused = _state;\n    }\n\n    function increaseMaxSupply(uint256 _newMaxSupply) public onlyOwner {\n        require(_newMaxSupply > maxSupply, \"Can not set a new maxSupply lower than the previous supply\");\n        maxSupply = _newMaxSupply;\n    }\n\n    function setMaxMintAmount(uint256 _newMaxMintAmount) public onlyOwner {\n        maxMintAmount = _newMaxMintAmount;\n    }\n\n    function withdraw() public payable onlyOwner {\n        (bool os, ) = payable(owner()).call{value: address(this).balance}(\"\");\n        require(os);\n    }\n\n\n    // MERKLE TREE VERIFICATION FUNCTIONS   \n    function _leaf(address account) internal pure returns (bytes32) {\n        return keccak256(abi.encodePacked(account));\n    }\n\n    function _verify(bytes32 _leafNode, bytes32[] memory proof) internal view returns (bool){\n        return MerkleProof.verify(proof, merkleRoot, _leafNode);\n    }\n\n    function mint(\n        uint256 _mintAmount,\n        bytes32[] calldata proof\n    ) public payable {\n        require(_verify(_leaf(msg.sender), proof), \"You are not on the white list\");\n\n        uint256 supply = totalSupply();\n        require(!paused, \"Contract is paused, contact owner to unpause it\");\n        require(supply + _mintAmount <= maxSupply, \"Minted amount would exceed maxSupply\");\n        require(_mintAmount <= maxMintAmount, \"Mint limit exceeded\");\n        emit MerkleUsed(msg.sender);\n\n        for (uint256 i = 1; i <= _mintAmount; i++) {\n            _safeMint(msg.sender, supply + i);\n        }\n    } \n\n    function setMerkleRoot(bytes32 root) onlyOwner public \n    {\n        merkleRoot = root;\n    }\n\n}",
  "sourcePath": "/Users/manueles95/Desktop/NFT/ContractMachine/contracts/OrvgsmMerkle.sol",
  "compiler": {
    "name": "solc",
    "version": "0.8.9+commit.e5eed63a.Emscripten.clang"
  },
  "schemaVersion": "3.4.3",
  "updatedAt": "2022-03-02T06:14:43.329Z",
  "networkType": "ethereum",
  "devdoc": {
    "kind": "dev",
    "methods": {
      "approve(address,uint256)": {
        "details": "See {IERC721-approve}."
      },
      "balanceOf(address)": {
        "details": "See {IERC721-balanceOf}."
      },
      "getApproved(uint256)": {
        "details": "See {IERC721-getApproved}."
      },
      "isApprovedForAll(address,address)": {
        "details": "See {IERC721-isApprovedForAll}."
      },
      "name()": {
        "details": "See {IERC721Metadata-name}."
      },
      "owner()": {
        "details": "Returns the address of the current owner."
      },
      "ownerOf(uint256)": {
        "details": "See {IERC721-ownerOf}."
      },
      "renounceOwnership()": {
        "details": "Leaves the contract without owner. It will not be possible to call `onlyOwner` functions anymore. Can only be called by the current owner. NOTE: Renouncing ownership will leave the contract without an owner, thereby removing any functionality that is only available to the owner."
      },
      "safeTransferFrom(address,address,uint256)": {
        "details": "See {IERC721-safeTransferFrom}."
      },
      "safeTransferFrom(address,address,uint256,bytes)": {
        "details": "See {IERC721-safeTransferFrom}."
      },
      "setApprovalForAll(address,bool)": {
        "details": "See {IERC721-setApprovalForAll}."
      },
      "supportsInterface(bytes4)": {
        "details": "See {IERC165-supportsInterface}."
      },
      "symbol()": {
        "details": "See {IERC721Metadata-symbol}."
      },
      "tokenByIndex(uint256)": {
        "details": "See {IERC721Enumerable-tokenByIndex}."
      },
      "tokenOfOwnerByIndex(address,uint256)": {
        "details": "See {IERC721Enumerable-tokenOfOwnerByIndex}."
      },
      "tokenURI(uint256)": {
        "details": "See {IERC721Metadata-tokenURI}."
      },
      "totalSupply()": {
        "details": "See {IERC721Enumerable-totalSupply}."
      },
      "transferFrom(address,address,uint256)": {
        "details": "See {IERC721-transferFrom}."
      },
      "transferOwnership(address)": {
        "details": "Transfers ownership of the contract to a new account (`newOwner`). Can only be called by the current owner."
      }
    },
    "version": 1
  },
  "userdoc": {
    "kind": "user",
    "methods": {},
    "version": 1
  }
}